:040000003FEF00F0DE
:10000800FACF49F0FBCF4AF0E9CF4BF0EACF4CF0FA
:10001800E1CF4DF0E2CF4EF0D9CF4FF0DACF50F02C
:10002800F3CF51F0F4CF52F0F6CF53F0F7CF54F0AE
:10003800F8CF55F0F5CF56F05CEC06F056C0F5FF5A
:1000480055C0F8FF54C0F7FF53C0F6FF52C0F4FF85
:1000580051C0F3FF50C0DAFF4FC0D9FF4EC0E2FFD6
:100068004DC0E1FF4CC0EAFF4BC0E9FF4AC0FBFFAF
:0A00780049C0FAFF110014EF11F067
:1008000000C30809083D086B0834034D0069006304
:100810000072006F006300680069007000200054DF
:10082000006500630068006E006F006C006F006779
:10083000007900200049006E0063002E002E035353
:100840000069006D0070006C0065002000480049E0
:1008500000440020004400650076006900630065E4
:10086000002000440065006D006F000902290001AE
:100870000100C03209040000020300000009211138
:10088000010001221D000705810340000107050149
:10089000034000010600FF0901A1011901294015CB
:1008A0000026FF007508954081001901294091003C
:1008B000C01201000200000008D8043F000001013E
:1008C000020001040309040004012205D8A411D088
:1008D000040120511F0B0009D8A40BD0278E030E52
:1008E00004012119D8A402D0010E01D0000E186E07
:1008F00000D004012251D8A41200040120511F0B82
:10090000020AD8A41200040124510F0B0009D8B424
:100910001200040124510F0B416E020E41601200BF
:10092000200E1D18D8A41200278E040124BF1BD04E
:10093000040124510F0B416E4150020D640EF3244B
:10094000D96E000EF420DA6EDECF45F0DDCF46F032
:10095000040124510F0B416E4150010D110EF3247F
:10096000D96E000E1AD0040124510F0B416E415074
:10097000020D090EF324D96E000EF420DA6EDECFDC
:1009800045F0DDCF46F0040124510F0B416E41507C
:10099000010D0F0EF324D96E000EF420DA6EDF5035
:1009A000446E00D044B002D0459402D0458400D0BB
:1009B000040124BF0BD0040124510F0B416E4150A0
:1009C000020D640EF324D96E000E0AD004012451E6
:1009D0000F0B416E4150020D090EF324D96E000E2B
:1009E000F420DA6E45C0DEFF46C0DDFF00D0030E06
:1009F00004012119D8A42FD045C0D9FF46C0DAFF81
:100A0000DFAE1CD0040124BF0BD0040124510F0B16
:100A1000416E4150010D110EF324D96E000E0AD023
:100A2000040124510F0B416E4150010D0F0EF324B0
:100A3000D96E000EF420DA6EDF8200D045C0D9FFF7
:100A400046C0DAFF000EDB8445C0D9FF46C0DAFF9E
:100A5000000EDB8E1200040E451A45C0D9FF46C0B9
:100A6000DAFFDFAE1BD045C0D9FF46C0DAFF7F0EEC
:100A7000DF1645C0D9FF46C0DAFF000EDB8C000E42
:100A80003A6E050E396E45C03BF046C03CF0000E94
:100A90003E6E020E3D6EEAEC0EF007D045C0D9FF67
:100AA00046C0DAFF000EDB8C00D0040E451A44B2BB
:100AB00006D045C0D9FF46C0DAFFDFAE31D0040111
:100AC00024BF0BD0040124510F0B416E4150010D86
:100AD000110EF324D96E000E0AD0040124510F0B1D
:100AE000416E4150010D0F0EF324D96E000EF4201B
:100AF000DA6EDF9200D045C0D9FF46C0DAFF3B0E68
:100B0000DF16000E3A6E050E396E45C03BF046C04A
:100B10003CF0000E3E6E020E3D6EEAEC0EF007D089
:100B200045C0D9FF46C0DAFF3B0EDF1600D00401F6
:100B300024510F0B416E4150010D6A0EF324426E99
:100B40000F0EF420436E42C0D9FF43C0DAFFFE0E01
:100B5000DF1612001200A394000E676E000E656E81
:100B6000000E6A6E6B0E0001716F0F0E0001726F46
:100B7000000E0001746F000E736F000E0001766F9F
:100B8000010E756F3BEC10F0160E626E9F0E666ED6
:100B90007B0E646E000E0001796F10D013D000013F
:100BA0007951040D000EF324D96E040EF420DA6E90
:100BB000DE6ADE6ADE6ADD6A0001792B070E00015B
:100BC0007965EDD7608C000E636E6098609C00D0F4
:100BD0006596000E276E000E046E000E066E000E67
:100BE000056E65B6F5D7010E1E6E010E1F6E000E66
:100BF0001A6E000E1B6E000E196E000E0001796F4A
:100C0000010E0001796501D033D000017951020D48
:100C1000090EF324D96E000EF420DA6E000EDE6E9B
:100C2000000EDD6E00017951020D640EF324D96EC1
:100C3000000EF420DA6E000EDE6E000EDD6E000196
:100C40007951010D0F0EF324D96E000EF420DA6EE7
:100C5000000EDF6E00017951010D110EF324D96EE3
:100C6000000EF420DA6E000EDF6E0001792BC8D77B
:100C7000080E096E040E0A6E160E6A6E040E04014A
:100C8000036F200E026F080E0401016F040E0401B1
:100C9000006F0401008F000E2A6E000E0001606FCD
:100CA000000E616F000E626F000E636F000E000198
:100CB0006E6F000E1D6E12001D04D8B460BA07D00E
:100CC000000E656E64806488020E1D6E00D065B4EF
:100CD00064A404D0659456EC10F000D060A202D059
:100CE000A494120065B064A007D000EC07F0A384C0
:100CF000040E1D6E659000D065B864A803D0BDECED
:100D000010F000D065AC1FD064AC0FD0000E3A6E6E
:100D1000730E396E000E3B6E000E3C6E000E3E6E82
:100D2000010E3D6EEAEC0EF000D0659C00EC11F077
:100D30002050D8B402D0200600D02050D8A403D030
:100D400008EC0CF000D065BA64AA03D0D8EC0FF020
:100D500000D065B264A210D07F0E3A6E3968000EE2
:100D60003B6E000E3C6E000E3E6E010E3D6EEAECD8
:100D70000EF0000E676E00D0040E1D6002D0A49429
:100D8000120064A63BD0000E486E030E486401D0EA
:100D900035D065A633D061CF2CF02C30E832E83264
:100DA0000F0B226E65962CB407D02250010D110E48
:100DB000F324D96E000E06D02250010D0F0EF3243D
:100DC000D96E000EF420DA6EDF7000D02250D8A465
:100DD00003D01DEC0EF010D0000E3A6E720E396E7C
:100DE0002C0E3B6E000E3C6E000E3E6E000E3D6EF5
:100DF000EAEC0EF001D002D0482AC7D7A494120022
:100E0000A394000E676E000E656E000E6A6E6B0E88
:100E10002D6E0F0E2E6E000E306E000E2F6E000E19
:100E2000326E010E316ED4EC10F0160E626E9F0E13
:100E3000666E7B0E646E000E356E0ED010D035508F
:100E4000040D000EF324D96E040EF420DA6EDE6A6F
:100E5000DE6ADE6ADD6A352A070E3564F0D7608CFB
:100E6000000E636E6098609C00D06596000E276E41
:100E7000000E046E000E066E000E056E65B6F5D708
:100E8000010E1E6E010E1F6E000E1A6E000E1B6EFE
:100E9000000E196E000E356E010E356401D02ED095
:100EA0003550020D090EF324D96E000EF420DA6ECF
:100EB000000EDE6E000EDD6E3550020D640EF32462
:100EC000D96E000EF420DA6E000EDE6E000EDD6EBE
:100ED0003550010D0F0EF324D96E000EF420DA6E9A
:100EE000000EDF6E3550010D110EF324D96E000E89
:100EF000F420DA6E000EDF6E352ACED7080E096EAA
:100F0000040E0A6E160E6A6E040E0401036F200EA4
:100F1000026F080E0401016F040E0401006F04014A
:100F2000008F000E2A6E000E0001606F000E616FD0
:100F3000000E626F000E636F000E00016E6F000EF8
:100F40001D6E120000016A5100016B11D8B46AD005
:100F50006AC0D9FF6BC0DAFF0001DFBE120062D0A9
:100F6000010E56EC11F070D00001685100016911BA
:100F7000D8B407D068C0D9FF69C0DAFF0001DFBE6E
:100F800063D0810E0501406F010EA5EC10F0000941
:100F9000D8A402D0010E01D0000E0501416F00D08F
:100FA000010E0001716F400E0001726F050E00010D
:100FB000736F400E0001746F010EBBEC0AF02DD070
:100FC00043D00001685100016911D8B407D068C04E
:100FD000D9FF69C0DAFF0001DFBE36D0000E5AEC3F
:100FE0000FF071C078F072C079F0370E0501406FD4
:100FF00078C041F5000179510501426F010E0001F1
:10100000716F400E0001726F050E0001736F400E8C
:101010000001746F010EBBEC0AF071C068F072C081
:1010200069F012D005010051370AD8B4CAD7520A64
:10103000D8B40AD0030AD8B407D0E60AD8B490D7F7
:10104000010AD8B491D700D0000E0001716F000ED4
:101050000001726F050E0001736F400E0001746F86
:10106000010EBBEC0AF071C06AF072C06BF01200A6
:101070001200800E04012019D8A41200C00E276EA1
:101080007CD0B10E246E080E256E000E296E120E55
:10109000286E120004012251D8A43ED0040122512E
:1010A000020D070EF324F66E080EF420F76E090009
:1010B000F5CF24F00A00F5CF25F0020E24242D6E82
:1010C000000E25202E6E2DC0F6FF2EC0F7FFF86A09
:1010D000070EF76403D00800F55005D0F6CFE9FFFE
:1010E000F7CFEAFFEF50286E030E24242D6E000E7A
:1010F00025202E6E2DC0F6FF2EC0F7FFF86A070ED2
:10110000F76403D00800F55005D0F6CFE9FFF7CF1C
:10111000EAFFEF50296E1200000E276E1200030E38
:101120000401226124D004012251020D010EF32496
:10113000F66E080EF420F76E0900F5CF24F00A00D1
:10114000F5CF25F024C0F6FF25C0F7FFF86A070E9B
:10115000F76403D00800F55005D0F6CFE9FFF7CFCC
:10116000EAFFEF502D6E2D50286E296A1200000EF6
:10117000276E1200000E276E120004012351010A8F
:10118000D8B47FD7030AD8B485D7010AD8B4C7D753
:10119000F1D71200120020EE01F01350D92614509E
:1011A000DA22DF502E6E2E50055C000E0658D8B0A5
:1011B00003D005C02EF000D02E50055E000E065A5A
:1011C000000E2D6E12D02D50010D280EF324D96E75
:1011D000040EF420DA6E01C0E1FF02C0E2FFDFCFAF
:1011E000E7FF014A022A2D2A00D02E502D5CD8A0FC
:1011F000EAD705500610D8B432D020EE01F01550D1
:10120000D9261650DA22080EDF6E20EE02F01550B5
:10121000D9261650DA22280EDE6E040EDD6E13C0BB
:10122000D9FF14C0DAFFDFBC0DD015C0D9FF16C03E
:10123000DAFF480EDF6E15C0D9FF16C0DAFF000EC8
:10124000DB8E120015C0D9FF16C0DAFF080EDF6E64
:1012500015C0D9FF16C0DAFF000EDB8E120020EE9B
:1012600001F01550D9261650DA22080EDF6E20EE56
:1012700002F01550D9261650DA22200EDE6E040E2A
:10128000DD6E15C0D9FF16C0DAFF040EDF6E15C083
:10129000D9FF16C0DAFF000EDB8E049E1C50D8A4C6
:1012A000120008EC0CF012001200609827BE3AD031
:1012B00004AE0DD0020E216E1B50D8A403D084ECD6
:1012C0000DF000D0000E1F6E000E1E6E120020EEFC
:1012D00001F01550D9261650DA22080EDF6E20EEE6
:1012E00002F01550D9261650DA22200EDE6E040EBA
:1012F000DD6E15C0D9FF16C0DAFF0C0EDF6E15C00B
:10130000D9FF16C0DAFF000EDB8E09C0D9FF0AC074
:10131000DAFF040EDF6E09C0D9FF0AC0DAFF000E43
:10132000DB8E1200040120AF12D0010E216E1A5084
:10133000D8A403D084EC0DF000D0000E1F6E000E78
:101340001E6E1C50D8A4120008EC0CF01200020E05
:10135000216E20EE01F01550D9261650DA22080E23
:10136000DF6E20EE02F01550D9261650DA22200E3C
:10137000DE6E040EDD6E15C0D9FF16C0DAFF040E56
:10138000DF6E15C0D9FF16C0DAFF000EDB8E000E2F
:101390001F6E000E1E6E1C50D8A4120008EC0CF03C
:1013A00012001200040120511F0BE806D8A41200FD
:1013B00001D0120004012451D8A4120001D012005F
:1013C000060E04012119D8B41AD023D018D02A044B
:1013D000D8A41FD07D0E246E080E256E000E296E37
:1013E000090E0AD0C00E276E14D0940E246E080E7B
:1013F000256E000E296E1D0E286EF4D70AD004014A
:101400002351210AD8B4E3D7030AD8B4EED7010A8E
:1014100000D004012039E832030BE806D8A41200FA
:1014200023D0120021D01200700E246E000E256E03
:10143000000E296E010E286EC10E276E1200800E5E
:10144000276E23C470F012006F0E246E000E256EFE
:10145000000E296E010E286E810E276E1200800E7E
:10146000276E22C46FF0120004012151010AD8B482
:101470001200030AD8B4D8D7010AD8B4E5D70A0AAB
:10148000D8B41200030AD8B4DAD7010AD8A41200DB
:10149000E6D7120004012039E832030B0009D8A472
:1014A000120046D0120044D0278E080E1D6E120086
:1014B00039EC08F012002AEC0BF012002A0E246E10
:1014C000000E256E2780010E286E278E120029EC53
:1014D0000DF0120000D064EC04F01200040124515D
:1014E000010D2B0EF324246E000EF420256E2780B0
:1014F000010E286E278E1200278E04012451010D43
:101500002B0EF324D96E000EF420DA6E22C4DFFF16
:101510001200000E3A6E020E396E000E3B6E000E87
:101520003C6E000E3E6E000E3D6EEAEC0EF01200B8
:1015300004012151000AD8B4CAD7010AD8B4CBD7C4
:10154000020AD8B4C8D7060AD8B4AED7030AD8B4AA
:10155000AFD7010AD8B4DDD70F0AD8B4AFD7010A84
:10156000D8B4A9D7030AD8B4B9D7010AD8B4C4D714
:10157000070A120012000001756F0001715100018D
:10158000D8B408D000017551020D090EF324D96EAC
:10159000000E07D000017551020D640EF324D96EC0
:1015A000000EF420DA6EDECF76F0DDCF77F000D0DB
:1015B0000001765100017711D8A407D0000E000178
:1015C000716F000E0001726F1200000120EE02F038
:1015D0007651D9267751DA2272C0DEFF73C0DDFF63
:1015E000000120EE01F07651D9267751DA2274C03D
:1015F000DFFF76C0D9FF77C0DAFF400EDF1676C076
:10160000D9FF77C0DAFF000EDB8676C0D9FF77C03E
:10161000DAFF000EDB8E000171510001D8B408D052
:1016200000017551020D090EF324D96E000E07D08A
:1016300000017551020D640EF324D96E000EF420E2
:10164000DA6E040EDF1A00D076C071F077C072F047
:1016500012001200278E6B0E2D6E0F0E2E6E000ED6
:10166000306E000E2F6E000E326E010E316ED4EC15
:1016700010F0000E2D6E040E2E6E000E306E000E59
:101680002F6E000E326E200E316ED4EC10F0608C96
:10169000000E416E010E416401D016D04150010D83
:1016A0000F0EF324D96E000EF420DA6E000EDF6EFA
:1016B0004150010D110EF324D96E000EF420DA6EA4
:1016C000000EDF6E412AE6D72B0E2D6E000E2E6E19
:1016D000000E306E000E2F6E000E326E010E316E57
:1016E000D4EC10F0609C080E096E040E0A6E000E19
:1016F000136E040E146E13C015F014C016F022C43D
:101700002AF02A50D8A403D0100E1D6E1200000E2D
:101710003A6E010E396E2A0E3B6E000E3C6E000EC4
:101720003E6E010E3D6EEAEC0EF0200E1D6E1200B4
:101730001200080E2D6E295011E1080E285CD8B059
:101740000DD028C02DF02350D8A402D0010E04D013
:101750002304D8A403D0020E236E00D02D50285E9F
:10176000000E295A20EE01F00950D9260A50DA223B
:101770002DC0DFFF280E00016C6F040E00016D6F9D
:1017800027A01ED03FD01CD024C0F6FF25C0F7FFF5
:10179000F86A6CC0D9FF6DC0DAFF070EF76403D09A
:1017A0000800F55005D0F6CFE9FFF7CFEAFFEF507C
:1017B000DF6E244A252A00016C4B6D2B2D0600D0CC
:1017C0002D50D8B41200E0D712001CD024C0F6FF70
:1017D00025C0F7FFF86A6CC0D9FF6DC0DAFF070EAD
:1017E000F76403D00800F55005D0F6CFE9FFF7CF36
:1017F000EAFFEF50DF6E244A252A00016C4B6D2B67
:101800002D0600D02D50D8B41200E0D712001200DF
:101810001E50D8A41200010E1E6E1F50D8A4120034
:10182000010E1F6E020E2118D8A415D020EE01F073
:101830000950D9260A50DA22000EDF6E09C0D9FFFE
:101840000AC0DAFF480EDF6E09C0D9FF0AC0DAFF0E
:10185000000EDB8E12002104D8A41200000E176EB9
:1018600020EE01F01350D9261450DA22080EDF6E54
:1018700020EE02F01350D9261450DA22200EDE6E2C
:10188000040EDD6E13C0D9FF14C0DAFF040EDF6E44
:1018900013C0D9FF14C0DAFF000EDB8E010E176EE5
:1018A00020EE01F01550D9261650DA22080EDF6E10
:1018B00020EE02F01550D9261650DA22200EDE6EE8
:1018C000040EDD6E15C0D9FF16C0DAFF800EDF6E84
:1018D00012001200316E2D50D8B407D03150020DD5
:1018E000090EF324D96E000E06D03150020D640E9D
:1018F000F324D96E000EF420DA6EDECF32F0DDCFA5
:1019000033F000D032503310D8A405D0000E2D6E25
:10191000000E2E6E120020EE02F03250D926335007
:10192000DA222EC0DEFF2FC0DDFF20EE01F03250A4
:10193000D9263350DA2230C0DFFF32C0D9FF33C09E
:10194000DAFF400EDF1632C0D9FF33C0DAFF000ED7
:10195000DB8632C0D9FF33C0DAFF000EDB8E2D509C
:10196000D8B407D03150020D090EF324D96E000E01
:1019700006D03150020D640EF324D96E000EF4200F
:10198000DA6E040EDF1A00D032C02DF033C02EF014
:101990001200120009C0D9FF0AC0DAFF000EDFBC36
:1019A000010E2E6E040E091A080E1D18D8A40CD0B4
:1019B000040122517F0B636E6350D8B402D0100E25
:1019C00001D0040E1D6E00D02104D8A43AD020EE20
:1019D00002F00950D9260A50DA22280EDE6E040ED3
:1019E000DD6E99EC0BF0020E2318D8A40DD009C0BF
:1019F000D9FF0AC0DAFF040EDF6E09C0D9FF0AC0A2
:101A0000DAFF000EDB8E12002E50D8A40DD009C0D4
:101A1000D9FF0AC0DAFF480EDF6E09C0D9FF0AC03D
:101A2000DAFF000EDB8E120009C0D9FF0AC0DAFF10
:101A3000080EDF6E09C0D9FF0AC0DAFF000EDB8E88
:101A4000120004AE02D0049E00D0000E216E1200DF
:101A50001200000E0401286F000E0401296F3DD012
:101A6000278E03D00401288100D01804D8A441D0C7
:101A7000040128833ED0278E3CD0278E040124BF4A
:101A80000BD0040124510F0B2D6E2D50020D640E4E
:101A9000F324D96E000E0AD0040124510F0B2D6ED1
:101AA0002D50020D090EF324D96E000EF420DA6ECB
:101AB000DECF2EF0DDCF2FF000D02EC0D9FF2FC00B
:101AC000DAFFDFAE16D02EC0D9FF2FC0DAFFDFA4B9
:101AD00010D0010E0401286F0CD0040120511F0BFF
:101AE000000AD8B4BDD7010AD8B4C5D7030AD8B400
:101AF000C4D727AE1200280E246E040E256E278050
:101B0000020E286E12001200000E1A6E000E1B6EDE
:101B1000020E2118D8A41FD020EE01F01550D926AE
:101B20001650DA22080EDF6E20EE02F01550D9268C
:101B30001650DA22280EDE6E040EDD6E15C0D9FFB7
:101B400016C0DAFF480EDF6E15C0D9FF16C0DAFFE7
:101B5000000EDB8E120028500401265D295004017E
:101B60002759D8B005D026C428F027C429F000D0C2
:101B700099EC0BF020EE02F00950D9260A50DA2237
:101B8000280EDE6E040EDD6E09C0D9FF0AC0DAFF32
:101B9000480EDF6E09C0D9FF0AC0DAFF000EDB8EE7
:101BA00012001200326E000E336E040E346E2D5091
:101BB0002E6E2F6AD8902E362F363250306E316A04
:101BC000D89030363136D890303631362E503026D7
:101BD0002F503122D89030363136D89030363136C9
:101BE000305033263150342233C0D9FF34C0DAFFAD
:101BF000DF9E2D50D8A407D03250020D640EF3247E
:101C0000D96E000E06D03250020D090EF324D96EA3
:101C1000000EF420DA6E33C0DEFF34C0DDFF00D0EA
:101C200033C0D9FF34C0DAFFDF9C20EE04F033501C
:101C3000D9263450DA22DF8C12002D0E206E2CC0F3
:101C400047F0FD0E4716D8A438D02CC047F0D890E6
:101C500047323F0E47164750040D000EF324136E13
:101C6000040EF420146E13C015F014C016F0040E08
:101C7000151A13C0D9FF14C0DAFFDF30E8320F0B9A
:101C80000D0AD8A417D0200E2D6E040E2E6E20EE55
:101C900002F01350D9261450DA22DECF2FF0DDCF18
:101CA00030F0000E326E080E316EFAEC0FF0A9EC37
:101CB0000EF012002BEC0FF012002C50FD0B040A5A
:101CC000D8A41200CAEC0CF0120012001904D8A417
:101CD00038D0000E9EEC11F0120033D00D040E101F
:101CE000D8A404D0000E91EC11F030D04B0E0D189A
:101CF0000E10D8A404D0000E9EEC11F027D00E5088
:101D000004E1970E0D5CD8A021D0000E0E6E000EDF
:101D10000D6E1CD00D040E10D8A404D0000E91EC52
:101D200011F014D0320E0D180E10D8A404D0000EED
:101D30009EEC11F00BD0B70E0D5C030E0E58E3D7DE
:101D400005D01D50200AD8B4C9D7E4D70D4A0E2AB1
:101D50001200000E236E000E1C6E000E1A6E000E96
:101D60001B6E000E176E000E216E09C0D9FF0AC04F
:101D7000DAFF7F0EDF16040E091A09C0D9FF0AC068
:101D8000DAFF7F0EDF16040E091A15C0D9FF16C040
:101D9000DAFF7F0EDF16000E276E000E296E000E92
:101DA000286E000E046E000E066E000E056E4AECE4
:101DB0000AF0000E3A6E030E396E000E3B6E000EF6
:101DC0003C6E000E3E6E000E3D6EEAEC0EF055ECE1
:101DD00009F0120016D0120066EC0EF0120066EC4C
:101DE0000EF0010EB1EC0FF0120066EC0EF0020ED8
:101DF000B1EC0FF0120071EC10F01200D2EC09F00F
:101E0000120039C03FF03AC040F04050000AD8B448
:101E100004D07F0AD8A412001AD03F50010AD8B4C7
:101E2000EAD7030AD8B41200010AD8B4E7D7060AE1
:101E3000D8B41200770AD8B41200010AD8B4CCD7AB
:101E4000070AD8B4D2D7010AD8A41200C8D73F5085
:101E5000FF0A12001200020E2118D8A403D0CBEC06
:101E600008F01200000E216E1750D8A41FD020EEEB
:101E700001F01550D9261650DA22080EDF6E20EE3A
:101E800002F01550D9261650DA22200EDE6E040E0E
:101E9000DD6E15C0D9FF16C0DAFF0C0EDF6E15C05F
:101EA000D9FF16C0DAFF000EDB8E1200000E176E8F
:101EB000120012000001766F06D00AD0000171698D
:101EC0007269120005D000017651000AD8A4F6D735
:101ED00076C073F0000173477347C2500001731955
:101EE000830B7319C26EC28200D0C2B2FED7C4CFB8
:101EF00074F00001756B00017451756F746BC35001
:101F00000001741374C071F075C072F012001200F9
:101F10000001726F1BD0800E9B6E700ED36E100E80
:101F2000D26E00D0D2AEFED7900EB56E000E25EC6C
:101F300011F0010E25EC11F0010E36EC11F0000E3F
:101F400047EC11F0000E83EC11F012000001725109
:101F5000000AD8B4E0D7010AD8B41200030A12006C
:101F600012002E6E1BD0800E9B6E700ED36E100E64
:101F7000D26E00D0D2AEFED7900EB56E000E65ECDC
:101F800011F0010E65EC11F0010E74EC11F0000E71
:101F9000ABEC11F0000EB7EC11F012002E50000A5D
:101FA000D8B4E1D7010AD8B41200030A1200120013
:101FB0006AA01ED013C0D9FF14C0DAFF800EDE184D
:101FC000D8A415D009C0D9FF0AC0DAFF840EDE18E4
:101FD000D8A40DD013C0D9FF14C0DAFF0C0EDF6EE9
:101FE00013C0D9FF14C0DAFF000EDB8E00D06A9058
:101FF000659A12002FC035F030C036F02DC033F096
:102000002EC034F00FD035C0D9FF36C0DAFF33C050
:10201000E1FF34C0E2FFDFCFE7FF354A362A334A1B
:10202000342A00D03106D8A032063128ECE132281B
:10203000D8A4E9D71200386E35A406D0000E2D6E54
:102040003850D2EC0DF000D035A206D0010E2D6E26
:102050003850D2EC0DF000D03850010D6A0EF32448
:10206000366E0F0EF420376E36C0D9FF37C0DAFF58
:1020700035C0DFFF120071C077F072C078F00AD06F
:1020800077C0D9FF78C0DAFF73C0DFFF0001774B5C
:10209000782B00D000017507D8A0760700017529BC
:1020A000EFE100017629D8A4EBD71200000E196EDB
:1020B000000E3A6E740E396E000E3B6E000E3C6ED2
:1020C000000E3E6E000E3D6EEAEC0EF060926494DF
:1020D00002D0659400D065B4FCD7000E00016E6F8D
:1020E0001200000E0001686F000E0001696F1E0EE5
:1020F000356E010E1BEC10F0000E2D6E000E2E6ED4
:10210000050E2F6E400E306E010E6AEC0CF02DC0E5
:102110006AF02EC06BF012001D50D8A41200000E01
:10212000606E000E646E160E626E9F0E666E7B0E03
:10213000646ED08EA584A384F28E01D0608660A6E2
:10214000FDD7010E1D6E120012000001716F09D043
:1021500083B602D0010E1200000E1200000E120013
:1021600009D000017151000AD8B4F8D7010AD8B4D7
:10217000EFD700D0000E12001200648465986082D0
:10218000010E196E000E00016E6F000E3A6E750E94
:10219000396E000E3B6E000E3C6E000E3E6E000E61
:1021A0003D6EEAEC0EF012002DC033F02EC034F07C
:1021B00009D033C0D9FF34C0DAFF2FC0DFFF334A64
:1021C000342A00D03106D8A032063128F2E1322874
:1021D000D8A4EFD71200000E88EC0FF0ABEC05F09E
:1021E0008CEC10F000D0200E1D6001D0FCD760B246
:1021F000FAD701D0F8D7A2EC07F0F5D73FEF00F0FF
:10220000010E00016027000E612362236323195031
:10221000D8A4120000016E2B00016E51D8A4120048
:1022200000016E691200120000EE60F0110EEE6AFD
:10223000E806FDE100EE01F02C0EEE6AE806FDE195
:10224000000EF86E0001EBEF10F00001716F04D08A
:1022500094940F015D95120000017151000AD8B4E9
:102260001200010AD8A41200F3D712000001716F06
:1022700004D095860F015E97120000017151000A8B
:10228000D8B41200010AD8A41200F3D7120000013A
:10229000716F000171510001D8A41200000EC16ECF
:1022A000BE0EC06E010EC26E120012000001716FF0
:1022B00002D08B74120000017151000AD8B41200D0
:1022C000010AD8A41200F5D712002D6E04D0949400
:1022D0000F015D9512002D50000AD8B41200010ABA
:1022E000D8A41200F4D712002D6E04D095860F01E9
:1022F0005E9712002D50000AD8B41200010AD8A42B
:102300001200F4D712000001716F04D092800F0107
:102310005B81120000017151000AD8A41200F6D7A7
:1023200012002D6E02D08B8412002D50000AD8B4FA
:102330001200010AD8A41200F6D712002D6E02D0A6
:102340008B9412002D50000AD8B41200010AD8A4B0
:102350001200F6D712002D6E2D50D8A41200000ED8
:10236000C16EBE0EC06E010EC26E120012002D6E46
:1023700004D092800F015B8112002D50000AD8A476
:062380001200F7D7120065
:020000040020DA
:08000000FFFFFFFFFFFFFFFF00
:020000040030CA
:0E00000021081F3EFF9181FF0FC00FE00F404F
:00000001FF
