:0400000041EF00F0DC
:100008005682FACF48F0FBCF49F0E9CF4AF0EACF61
:100018004BF0E1CF4CF0E2CF4DF0D9CF4EF0DACF34
:100028004FF0F3CF50F0F4CF51F0F6CF52F0F7CFB6
:1000380053F0F8CF54F0F5CF55F0F5EC06F055C075
:10004800F5FF54C0F8FF53C0F7FF52C0F6FF51C088
:10005800F4FF50C0F3FF4FC0DAFF4EC0D9FF4DC0C8
:10006800E2FF4CC0E1FF4BC0EAFF4AC0E9FF49C0CC
:0E007800FBFF48C0FAFF569211007DEF10F01A
:1008000000C30809083D086B0834034D0069006304
:100810000072006F006300680069007000200054DF
:10082000006500630068006E006F006C006F006779
:10083000007900200049006E0063002E002E035353
:100840000069006D0070006C0065002000480049E0
:1008500000440020004400650076006900630065E4
:10086000002000440065006D006F000902290001AE
:100870000100C03209040000020300000009211138
:10088000010001221D000705810340000107050149
:10089000034000010600FF0901A1011901294015CB
:1008A0000026FF007508954081001901294091003C
:1008B000C01201000200000008D8043F000001013E
:1008C000020001040309040004012205D8A410D089
:1008D000040120511F0B0009D8A40AD00C8E030E6E
:1008E00004012119D8A402D0010E01D0000E1E6E01
:1008F00004012251D8A41200040120511F0B020A46
:10090000D8A41200040124510F0B0009D8B412001E
:10091000040124510F0B406E020E40601200200EA5
:100920002218D8A412000C8E040124BF1BD004018D
:1009300024510F0B406E4050020D640EF324D96E0B
:10094000000EF420DA6EDECF44F0DDCF45F0040176
:1009500024510F0B406E4050010D170EF324D96E39
:10096000000E1AD0040124510F0B406E4050020DAE
:100970000F0EF324D96E000EF420DA6EDECF44F0B1
:10098000DDCF45F0040124510F0B406E4050010DA6
:10099000150EF324D96E000EF420DA6EDF50436E8C
:1009A00043B002D0449401D04484040124BF0BD04E
:1009B000040124510F0B406E4050020D640EF324CD
:1009C000D96E000E0AD0040124510F0B406E405026
:1009D000020D0F0EF324D96E000EF420DA6E44C01F
:1009E000DEFF45C0DDFF030E04012119D8A42ED07F
:1009F00044C0D9FF45C0DAFFDFAE1BD0040124BFDD
:100A00000BD0040124510F0B406E4050010D170E06
:100A1000F324D96E000E0AD0040124510F0B406E4E
:100A20004050010D150EF324D96E000EF420DA6E3D
:100A3000DF8244C0D9FF45C0DAFF000EDB8444C02A
:100A4000D9FF45C0DAFF000EDB8E1200040E441AF7
:100A500044C0D9FF45C0DAFFDFAE1BD044C0D9FF88
:100A600045C0DAFF7F0EDF1644C0D9FF45C0DAFF6C
:100A7000000EDB8C000E396E050E386E44C03AF065
:100A800045C03BF0000E3D6E020E3C6E92EC0EF047
:100A900006D044C0D9FF45C0DAFF000EDB8C040E3F
:100AA000441A43B206D044C0D9FF45C0DAFFDFAED6
:100AB00030D0040124BF0BD0040124510F0B406E31
:100AC0004050010D170EF324D96E000E0AD0040118
:100AD00024510F0B406E4050010D150EF324D96EBA
:100AE000000EF420DA6EDF9244C0D9FF45C0DAFF71
:100AF0003B0EDF16000E396E050E386E44C03AF01C
:100B000045C03BF0000E3D6E020E3C6E92EC0EF0C6
:100B100006D044C0D9FF45C0DAFF3B0EDF16040102
:100B200024510F0B406E4050010D6A0EF324416EAC
:100B30000F0EF420426E41C0D9FF42C0DAFFFE0E14
:100B4000DF161200A394000E676E000E656E000E95
:100B50006A6E6B0E0001726F0F0E0001736F000E54
:100B60000001756F000E746F000E0001776F010EAB
:100B7000766FEFEC0FF0160E626E9F0E666E7B0EB8
:100B8000646E000E00017A6F070E00017A6501D0D5
:100B900010D000017A51040D000EF324D96E040E1A
:100BA000F420DA6EDE6ADE6ADE6ADD6A00017A2B24
:100BB000EBD7608C000E636E6098609C6596000EAB
:100BC0000C6E000E046E000E066E000E056E65B60D
:100BD000F5D7010E236E010E246E000E206E000E5E
:100BE00000016E6F000E1F6E000E00017A6F010E85
:100BF00000017A6501D033D000017A51020D0F0E49
:100C0000F324D96E000EF420DA6E000EDE6E000EB4
:100C1000DD6E00017A51020D640EF324D96E000ED0
:100C2000F420DA6E000EDE6E000EDD6E00017A51E9
:100C3000010D150EF324D96E000EF420DA6E000EAD
:100C4000DF6E00017A51010D170EF324D96E000EEC
:100C5000F420DA6E000EDF6E00017A2BC8D7080E82
:100C60000F6E040E106E160E6A6E040E0401036FF2
:100C7000200E026F080E0401016F040E0401006FC4
:100C80000401008F000E296E000E0001606F000E3F
:100C9000616F000E626F000E636F000E00016F6FD8
:100CA000000E226E1200A394000E676E000E656E99
:100CB000000E6A6E6B0E2C6E0F0E2D6E000E2F6ED8
:100CC000000E2E6E000E316E010E306E52EC10F0E2
:100CD000160E626E9F0E666E7B0E646E000E346E94
:100CE000070E346401D00ED03450040D000EF324EE
:100CF000D96E040EF420DA6EDE6ADE6ADE6ADD6A20
:100D0000342AEED7608C000E636E6098609C659606
:100D1000000E0C6E000E046E000E066E000E056EC8
:100D200065B6F5D7010E236E010E246E000E206EFF
:100D3000000E00016E6F000E1F6E000E346E010E6D
:100D4000346401D02ED03450020D0F0EF324D96E2E
:100D5000000EF420DA6E000EDE6E000EDD6E3450F2
:100D6000020D640EF324D96E000EF420DA6E000E2C
:100D7000DE6E000EDD6E3450010D150EF324D96EBB
:100D8000000EF420DA6E000EDF6E3450010D170EE7
:100D9000F324D96E000EF420DA6E000EDF6E342AD2
:100DA000CED7080E0F6E040E106E160E6A6E040E6D
:100DB0000401036F200E026F080E0401016F040E80
:100DC0000401006F0401008F000E296E000E000167
:100DD000606F000E616F000E626F000E636F000E99
:100DE00000016F6F000E226E12002204D8B460BAA8
:100DF00006D0000E656E64806488020E226E65B4B3
:100E000064A403D0659409EC10F060A202D0A4940D
:100E1000120065B064A006D053EC06F0A384040E63
:100E2000226E659065B864A802D03BEC10F065AC0A
:100E30001AD064AC0ED0000E396E730E386E000EF0
:100E40003A6E000E3B6E000E3D6E010E3C6E92EC53
:100E50000EF0659C90EC10F02550D8A42506255086
:100E6000D8B4C2EC0BF065BA64AA02D075EC0FF0EE
:100E700065B264A20FD07F0E396E3868000E3A6EEC
:100E8000000E3B6E000E3D6E010E3C6E92EC0EF0BD
:100E9000000E676E040E226002D0A494120064A6B5
:100EA00038D0000E476E030E476401D032D065A6DD
:100EB00030D061CF2BF02B30E832E8320F0B276EA9
:100EC00065962BB407D02750010D170EF324D96E69
:100ED000000E06D02750010D150EF324D96E000E1A
:100EE000F420DA6EDF702750D8A403D0C7EC0DF0E1
:100EF0000ED0000E396E720E386E2B0E3A6E000E4A
:100F00003B6E000E3D6E000E3C6E92EC0EF0472ADA
:100F1000CAD7A4941200800E04012019D8A412008C
:100F2000C00E0C6E7CD0B10E096E080E0A6E000E5B
:100F30000E6E120E0D6E120004012251D8A43ED086
:100F400004012251020D070EF324F66E080EF42060
:100F5000F76E0900F5CF09F00A00F5CF0AF0020E8E
:100F600009242C6E000E0A202D6E2CC0F6FF2DC019
:100F7000F7FFF86A070EF76403D00800F55005D0B4
:100F8000F6CFE9FFF7CFEAFFEF500D6E030E09240D
:100F90002C6E000E0A202D6E2CC0F6FF2DC0F7FF20
:100FA000F86A070EF76403D00800F55005D0F6CFB5
:100FB000E9FFF7CFEAFFEF500E6E1200000E0C6E45
:100FC0001200030E0401226124D004012251020DFB
:100FD000010EF324F66E080EF420F76E0900F5CF2B
:100FE00009F00A00F5CF0AF009C0F6FF0AC0F7FFC2
:100FF000F86A070EF76403D00800F55005D0F6CF65
:10100000E9FFF7CFEAFFEF502C6E2C500D6E0E6A01
:101010001200000E0C6E1200000E0C6E1200040185
:101020002351010AD8B47FD7030AD8B485D7010A5F
:10103000D8B4C7D7F1D700016A5100016B11D8B4F9
:1010400068D06AC0D9FF6BC0DAFF0001DFBE1200B2
:1010500060D0010EE1EC10F067D000016851000192
:101060006911D8B407D068C0D9FF69C0DAFF0001A0
:10107000DFBE5AD0810E0501406F010E68EC10F002
:101080000009D8A402D0010E01D0000E0501416F65
:10109000010E0001726F400E0001736F050E00011A
:1010A000746F400E0001756F010EEFEC0AF02CD04A
:1010B0000001685100016911D8B407D068C0D9FF98
:1010C00069C0DAFF0001DFBE2FD0000EFFEC0EF08A
:1010D00072C079F073C07AF0370E0501406F79C0A5
:1010E00041F500017A510501426F010E0001726F56
:1010F000400E0001736F050E0001746F400E000179
:10110000756F010EEFEC0AF072C068F073C069F001
:101110000BD005010051370AD8B4CAD7B70AD8B4E2
:1011200098D7010AD8B499D7000E0001726F000E4B
:101130000001736F050E0001746F400E0001756FA2
:10114000010EEFEC0AF072C06AF073C06BF012008F
:1011500020EE01F01950D9261A50DA22DF502D6EF8
:101160002D50055C000E0658D8A005C02DF02D505E
:10117000055E000E065A000E2C6E11D02C50010D8B
:10118000280EF324D96E040EF420DA6E01C0E1FFBC
:1011900002C0E2FFDFCFE7FF014A022A2C2A2D50CE
:1011A0002C5CD8A0EBD705500610D8B432D020EE76
:1011B00001F01B50D9261C50DA22080EDF6E20EEFB
:1011C00002F01B50D9261C50DA22280EDE6E040EC7
:1011D000DD6E19C0D9FF1AC0DAFFDFBC0DD01BC00D
:1011E000D9FF1CC0DAFF480EDF6E1BC0D9FF1CC040
:1011F000DAFF000EDB8E12001BC0D9FF1CC0DAFF25
:10120000080EDF6E1BC0D9FF1CC0DAFF000EDB8E9C
:10121000120020EE01F01B50D9261C50DA22080ED5
:10122000DF6E20EE02F01B50D9261C50DA22200E71
:10123000DE6E040EDD6E1BC0D9FF1CC0DAFF040E8B
:10124000DF6E1BC0D9FF1CC0DAFF000EDB8E049ED0
:101250002150D8A41200C2EC0BF0120060980CBE12
:1012600039D004AE0CD0020E266E00016E51D8B4F7
:1012700030EC0DF0000E246E000E236E120020EEF6
:1012800001F01B50D9261C50DA22080EDF6E20EE2A
:1012900002F01B50D9261C50DA22200EDE6E040EFE
:1012A000DD6E1BC0D9FF1CC0DAFF0C0EDF6E1BC049
:1012B000D9FF1CC0DAFF000EDB8E0FC0D9FF10C0B3
:1012C000DAFF040EDF6E0FC0D9FF10C0DAFF000E88
:1012D000DB8E1200040120AF10D0010E266E2050CC
:1012E000D8B430EC0DF0000E246E000E236E2150A9
:1012F000D8A41200C2EC0BF01200020E266E20EEF3
:1013000001F01B50D9261C50DA22080EDF6E20EEA9
:1013100002F01B50D9261C50DA22200EDE6E040E7D
:10132000DD6E1BC0D9FF1CC0DAFF040EDF6E1BC0D0
:10133000D9FF1CC0DAFF000EDB8E000E246E000EFB
:10134000236E2150D8A41200C2EC0BF012000C8EB8
:101350006B0E2C6E0F0E2D6E000E2F6E000E2E6E6D
:10136000000E316E010E306E52EC10F0000E2C6E3D
:10137000040E2D6E000E2F6E000E2E6E000E316EBE
:10138000200E306E52EC10F0608C000E406E010E9C
:10139000406401D016D04050010D150EF324D96ED3
:1013A000000EF420DA6E000EDF6E4050010D170EB5
:1013B000F324D96E000EF420DA6E000EDF6E402AA0
:1013C000E6D72A0E2C6E000E2D6E000E2F6E000E2C
:1013D0002E6E000E316E010E306E52EC10F0609CDD
:1013E000080E0F6E040E106E000E196E040E1A6EAB
:1013F00019C01BF01AC01CF022C429F02950D8A42F
:1014000003D0100E226E1200000E396E010E386EDF
:10141000290E3A6E000E3B6E000E3D6E010E3C6EC4
:1014200092EC0EF0200E226E120004012039E832F8
:10143000030B0009D8A4120043D00C8E080E226EB4
:1014400012008BEC07F01200A7EC09F01200290E35
:10145000096E000E0A6E0C80010E0D6E0C8E1200CD
:10146000DBEC0CF0120064EC04F0120004012451D7
:10147000010D2A0EF324096E000EF4200A6E0C8072
:10148000010E0D6E0C8E12000C8E04012451010D04
:101490002A0EF324D96E000EF420DA6E22C4DFFF88
:1014A0001200000E396E020E386E000E3A6E000EFB
:1014B0003B6E000E3D6E000E3C6E92EC0EF0120084
:1014C00004012151000AD8B4CBD7010AD8B4CBD734
:1014D000020AD8B4C8D7060AD8B4AFD7030AD8B41A
:1014E000B0D7010AD8B4DDD70F0AD8B4B0D7010AF3
:1014F000D8B4AAD7030AD8B4B9D7010AD8B4C4D784
:10150000070A1200040120511F0BE806D8A412009C
:1015100004012451D8A41200060E04012119D8B4E4
:1015200018D020D02904D8A41DD07D0E096E080E35
:101530000A6E000E0E6E090E0AD0C00E0C6E12D08E
:10154000940E096E080E0A6E000E0E6E1D0E0D6EC4
:10155000F4D704012351210AD8B4E4D7030AD8B43C
:10156000EFD7010A04012039E832030BE806D8A4BA
:10157000120020D0710E096E000E0A6E000E0E6E63
:10158000010E0D6EC10E0C6E1200800E0C6E23C487
:1015900071F01200700E096E000E0A6E000E0E6ED3
:1015A000010E0D6E810E0C6E1200800E0C6E22C4A8
:1015B00070F0120004012151010AD8B41200030A8C
:1015C000D8B4D8D7010AD8B4E5D70A0AD8B41200DB
:1015D000030AD8B4DAD7010AD8A41200E6D700016A
:1015E000766F000172510001D8B408D00001765125
:1015F000020D0F0EF324D96E000E07D000017651B4
:10160000020D640EF324D96E000EF420DA6EDECFE4
:1016100077F0DDCF78F00001775100017811D8A480
:1016200007D0000E0001726F000E0001736F1200F0
:10163000000120EE02F07751D9267851DA2273C0EA
:10164000DEFF74C0DDFF000120EE01F07751D926E6
:101650007851DA2275C0DFFF77C0D9FF78C0DAFF92
:10166000400EDF1677C0D9FF78C0DAFF000EDB86A8
:1016700077C0D9FF78C0DAFF000EDB8E000172510F
:101680000001D8B408D000017651020D0F0EF324EA
:10169000D96E000E07D000017651020D640EF324BE
:1016A000D96E000EF420DA6E040EDF1A77C072F0E5
:1016B00078C073F01200080E2C6E0E5010E1080E68
:1016C0000D5CD8B00CD00DC02CF02850D8A402D09E
:1016D000010E04D02804D8A402D0020E286E2C508B
:1016E0000D5E000E0E5A20EE01F00F50D92610505C
:1016F000DA222CC0DFFF280E00016C6F040E0001FF
:101700006D6F0CA01CD03AD009C0F6FF0AC0F7FFDD
:10171000F86A6CC0D9FF6DC0DAFF070EF76403D01A
:101720000800F55005D0F6CFE9FFF7CFEAFFEF50FC
:10173000DF6E094A0A2A00016C4B6D2B2C062C50D7
:10174000D8B41200E1D709C0F6FF0AC0F7FFF86A63
:101750006CC0D9FF6DC0DAFF070EF76403D0080034
:10176000F55005D0F6CFE9FFF7CFEAFFEF50DF6E77
:10177000094A0A2A00016C4B6D2B2C062C50D8B458
:101780001200E1D72350D8A41200010E236E24507A
:10179000D8A41200010E246E020E2618D8A415D06B
:1017A00020EE01F00F50D9261050DA22000EDF6E25
:1017B0000FC0D9FF10C0DAFF480EDF6E0FC0D9FF8F
:1017C00010C0DAFF000EDB8E12002604D8A412002F
:1017D000000E1D6E20EE01F01950D9261A50DA22A3
:1017E000080EDF6E20EE02F01950D9261A50DA22C8
:1017F000200EDE6E040EDD6E19C0D9FF1AC0DAFFAE
:10180000040EDF6E19C0D9FF1AC0DAFF000EDB8E9E
:10181000010E1D6E20EE01F01B50D9261C50DA225D
:10182000080EDF6E20EE02F01B50D9261C50DA2283
:10183000200EDE6E040EDD6E1BC0D9FF1CC0DAFF69
:10184000800EDF6E1200306E2C50D8B407D03050AE
:10185000020D0F0EF324D96E000E06D03050020D8B
:10186000640EF324D96E000EF420DA6EDECF31F070
:10187000DDCF32F031503210D8A405D0000E2C6EDE
:10188000000E2D6E120020EE02F03150D92632509B
:10189000DA222DC0DEFF2EC0DDFF20EE01F0315038
:1018A000D9263250DA222FC0DFFF31C0D9FF32C033
:1018B000DAFF400EDF1631C0D9FF32C0DAFF000E6A
:1018C000DB8631C0D9FF32C0DAFF000EDB8E2C5030
:1018D000D8B407D03050020D0F0EF324D96E000E8D
:1018E00006D03050020D640EF324D96E000EF420A1
:1018F000DA6E040EDF1A31C02CF032C02DF0120067
:101900000FC0D9FF10C0DAFF000EDFBC010E2D6E34
:10191000040E0F1A080E2218D8A40BD0040122516D
:101920007F0B636E6350D8B402D0100E01D0040E4A
:10193000226E2604D8A43AD020EE02F00F50D92609
:101940001050DA22280EDE6E040EDD6E5BEC0BF01A
:10195000020E2818D8A40DD00FC0D9FF10C0DAFF8E
:10196000040EDF6E0FC0D9FF10C0DAFF000EDB8E51
:1019700012002D50D8A40DD00FC0D9FF10C0DAFF2F
:10198000480EDF6E0FC0D9FF10C0DAFF000EDB8EED
:1019900012000FC0D9FF10C0DAFF080EDF6E0FC0B3
:1019A000D9FF10C0DAFF000EDB8E120004BE049EC9
:1019B000000E266E1200000E0401286F000E0401B6
:1019C000296F38D00C8E1E04D8A440D0040128837F
:1019D0003DD00C8E3BD00C8E040124BF0BD00401F3
:1019E00024510F0B2C6E2C50020D640EF324D96E73
:1019F000000E0AD0040124510F0B2C6E2C50020D46
:101A00000F0EF324D96E000EF420DA6EDECF2DF027
:101A1000DDCF2EF02DC0D9FF2EC0DAFFDFAE16D0FD
:101A20002DC0D9FF2EC0DAFFDFA410D0010E0401B3
:101A3000286F0CD0040120511F0B000AD8B4C2D764
:101A4000010AD8B4C6D7030AD8B4C5D70CAE120061
:101A5000280E096E040E0A6E0C80020E0D6E120026
:101A6000000E206E000E00016E6F020E2618D8A424
:101A70001FD020EE01F01B50D9261C50DA22080E90
:101A8000DF6E20EE02F01B50D9261C50DA22280E01
:101A9000DE6E040EDD6E1BC0D9FF1CC0DAFF480EDF
:101AA000DF6E1BC0D9FF1CC0DAFF000EDB8E1200F8
:101AB0000D500401265D0E5004012759D8B004D002
:101AC00026C40DF027C40EF05BEC0BF020EE02F004
:101AD0000F50D9261050DA22280EDE6E040EDD6E6D
:101AE0000FC0D9FF10C0DAFF480EDF6E0FC0D9FF5C
:101AF00010C0DAFF000EDB8E1200316E000E326E67
:101B0000040E336E2C502D6E2E6AD8902D362E3644
:101B100031502F6E306AD8902F363036D8902F360D
:101B200030362D502F262E503022D8902F3630367A
:101B3000D8902F3630362F5032263050332232C0D4
:101B4000D9FF33C0DAFFDF9E2C50D8A407D0315024
:101B5000020D640EF324D96E000E06D03150020D32
:101B60000F0EF324D96E000EF420DA6E32C0DEFFC1
:101B700033C0DDFF32C0D9FF33C0DAFFDF9C20EE77
:101B800004F03250D9263350DA22DF8C12002D0EA9
:101B9000256E2BC046F0FD0E4616D8A438D02BC0BB
:101BA00046F0D89046323F0E46164650040D000EC1
:101BB000F324196E040EF4201A6E19C01BF01AC01B
:101BC0001CF0040E1B1A19C0D9FF1AC0DAFFDF304F
:101BD000E8320F0B0D0AD8A417D0200E2C6E040E7D
:101BE0002D6E20EE02F01950D9261A50DA22DECFDF
:101BF0002EF0DDCF2FF0000E316E080E306E96EC19
:101C00000FF00FEC0EF01200D1EC0EF012002B5082
:101C1000FD0B040AD8A4120080EC0CF01200000E98
:101C2000286E000E216E000E206E000E00016E6FF9
:101C3000000E1D6E000E266E0FC0D9FF10C0DAFF19
:101C40007F0EDF16040E0F1A0FC0D9FF10C0DAFF87
:101C50007F0EDF16040E0F1A1BC0D9FF1CC0DAFF5F
:101C60007F0EDF16000E0C6E000E0E6E000E0D6E57
:101C7000000E046E000E066E000E056E15EC0AF0E6
:101C8000000E396E030E386E000E3A6E000E3B6E7B
:101C9000000E3D6E000E3C6E92EC0EF02EEC09F044
:101CA00012001F04D8A436D0010E24EC11F012004B
:101CB00013041410D8A404D0010E18EC11F02FD086
:101CC0004B0E13181410D8A404D0010E24EC11F0FC
:101CD00026D0145004E1970E135CD8A020D0000E3B
:101CE000146E000E136E1BD013041410D8A404D06D
:101CF000010E18EC11F013D0320E13181410D8A4E2
:101D000004D0010E24EC11F00AD0B70E135C030EC0
:101D10001458E3D72250200AD8B4CAD7E5D7134ABB
:101D2000142A120015D051EC0EF0120051EC0EF0F6
:101D3000010E50EC0FF0120051EC0EF0020E50ECC0
:101D40000FF01200D4EC0FF0120082EC0AF0120037
:101D500038C03EF039C03FF03F50000AD8B404D03C
:101D60007F0AD8A412001AD03E50010AD8B4EAD78C
:101D7000030AD8B41200010AD8B4E7D7060AD8B4C7
:101D80001200770AD8B41200010AD8B4CCD7070AD7
:101D9000D8B4D2D7010AD8A41200C8D73E50FF0A3F
:101DA0001200020E2618D8A403D0A8EC08F01200E6
:101DB000000E266E1D50D8A41FD020EE01F01B503F
:101DC000D9261C50DA22080EDF6E20EE02F01B50DE
:101DD000D9261C50DA22200EDE6E040EDD6E1BC0EA
:101DE000D9FF1CC0DAFF0C0EDF6E1BC0D9FF1CC070
:101DF000DAFF000EDB8E1200000E1D6E12000001D5
:101E0000776F04D000017269736912000001775185
:101E1000000AD8A4F7D777C074F00001744774475C
:101E2000C25000017419830B7419C26EC282C2B20F
:101E3000FED7C4CF75F00001766B00017551766F47
:101E4000756BC3500001751375C072F076C073F0E6
:101E500012000001736F1AD0800E9B6E700ED36E4D
:101E6000100ED26ED2AEFED7900EB56E010EB3EC50
:101E700010F0010EB3EC10F0010EC3EC10F0000EE8
:101E8000D3EC10F0000E0BEC11F0120000017351B6
:101E9000000AD8B4E1D7010AD8B41200030A12002C
:101EA0002D6E1AD0800E9B6E700ED36E100ED26EF9
:101EB000D2AEFED7900EB56E010EEFEC10F0010E13
:101EC000EFEC10F0010EFDEC10F0000E30EC11F014
:101ED000000E3BEC11F012002D50000AD8B4E2D7EE
:101EE000010AD8B41200030A12006AA01DD019C05A
:101EF000D9FF1AC0DAFF800EDE18D8A414D00FC0A4
:101F0000D9FF10C0DAFF840EDE18D8A40CD019C097
:101F1000D9FF1AC0DAFF0C0EDF6E19C0D9FF1AC044
:101F2000DAFF000EDB8E6A90659A12002EC034F044
:101F30002FC035F02CC032F02DC033F00ED034C09D
:101F4000D9FF35C0DAFF32C0E1FF33C0E2FFDFCF97
:101F5000E7FF344A352A324A332A3006D8A0310600
:101F60003028EDE13128D8B41200E9D7376E34A417
:101F700005D0000E2C6E37507DEC0DF034A205D04C
:101F8000010E2C6E37507DEC0DF03750010D6A0EAE
:101F9000F324356E0F0EF420366E35C0D9FF36C0EF
:101FA000DAFF34C0DFFF1200000E0001686F000E80
:101FB0000001696F1E0E346E010EB6EC0FF0000EBC
:101FC0002C6E000E2D6E050E2E6E400E2F6E010E25
:101FD00023EC0CF02CC06AF02DC06BF0120072C024
:101FE00078F073C079F009D078C0D9FF79C0DAFFF2
:101FF00074C0DFFF0001784B792B00017607D8A071
:10200000770700017629F0E100017729D8B41200A2
:10201000EBD7000E1F6E000E396E740E386E000E78
:102020003A6E000E3B6E000E3D6E000E3C6E92EC62
:102030000EF06092649401D0659465B4FDD7000EF3
:1020400000016F6F12002250D8A41200000E606EC3
:10205000000E646E160E626E9F0E666E7B0E646ED0
:10206000D08EA584A384F28E01D0608660A6FDD7B1
:10207000010E226E1200648465986082010E1F6E4C
:10208000000E00016F6F000E396E750E386E000E77
:102090003A6E000E3B6E000E3D6E000E3C6E92ECF2
:1020A0000EF012002CC032F02DC033F008D032C038
:1020B000D9FF33C0DAFF2EC0DFFF324A332A3006A1
:1020C000D8A031063028F3E13128D8B41200EFD778
:1020D0000001726F08D083B602D0010E1200000E0C
:1020E0001200000E120000017251000AD8B4F9D794
:1020F000010AD8B4F0D7000E120000EE60F0120E04
:10210000EE6AE806FDE100EE01F02B0EEE6AE8064D
:10211000FDE156905692000EF86E0001A3EF10F00C
:10212000010E00016027000E6123622363231F500C
:10213000D8A4120000016F2B00016F51D8A4120027
:1021400000016F691200000E29EC0FF0A2EC05F0FF
:1021500023EC10F0200E226001D0FCD760B2FAD739
:102160001BEC08F0F7D70001726F04D094940F01B4
:102170005D95120000017251000AD8B41200010AE4
:10218000D8A41200F3D70001726F04D095860F0116
:102190005E97120000017251000AD8B41200010AC1
:1021A000D8A41200F3D70001726F00017251000130
:1021B000D8A41200000EC16EBE0EC06E010EC26E1B
:1021C00012000001726F02D08B7412000001725174
:1021D000000AD8B41200010AD8A41200F5D72C6E58
:1021E00004D094940F015D9512002C50000AD8B4CD
:1021F0001200010AD8A41200F4D72C6E04D09586E0
:102200000F015E9712002C50000AD8B41200010A88
:10221000D8A41200F4D70001726F04D092800F018D
:102220005B81120000017251000AD8A41200F6D797
:102230002C6E02D08B8412002C50000AD8B41200ED
:10224000010AD8A41200F6D72C6E02D08B9412008B
:102250002C50000AD8B41200010AD8A41200F6D7F4
:102260002C6E2C50D8A41200000EC16EBE0EC06E93
:10227000010EC26E12002C6E04D092800F015B81A1
:0C22800012002C50000AD8A41200F7D75E
:020000040020DA
:08000000FFFFFFFFFFFFFFFF00
:020000040030CA
:0E00000021081F3EFF9181FF0FC00FE00F404F
:00000001FF
