:040000003FEF00F0DE
:10000800FACF47F0FBCF48F0E9CF49F0EACF4AF002
:10001800E1CF4BF0E2CF4CF0D9CF4DF0DACF4EF034
:10002800F3CF4FF0F4CF50F0F6CF51F0F7CF52F0B6
:10003800F8CF53F0F5CF54F098EC09F054C0F5FF21
:1000480053C0F8FF52C0F7FF51C0F6FF50C0F4FF8D
:100058004FC0F3FF4EC0DAFF4DC0D9FF4CC0E2FFDE
:100068004BC0E1FF4AC0EAFF49C0E9FF48C0FBFFB7
:1000780047C0FAFF11002FEF18F00001EB51000103
:10008800EC11D8B448D1EBC0D9FFECC0DAFF0001BD
:10009800DFBE120040D1010E82EC18F04ED10001F3
:1000A800E9510001EA11D8B407D0E9C0D9FFEAC084
:1000B800DAFF0001DFBE41D1810E0501406F010E5C
:1000C8000001606F400E0001616F050E0001626F54
:1000D800400E0001636F010E7DEC0FF017D12DD19A
:1000E8000001E9510001EA11D8B407D0E9C0D9FFED
:1000F800EAC0DAFF0001DFBE20D1100E0501406F13
:10010800010E0001DE6F3F0E0001DE6501D079D0DF
:10011800000E0001DF6F070E0001DF6501D060D01F
:100128000001DF51ADEC17F068C0C6F069C0C7F038
:100138006AC0C8F0000E0001C36F000E0001C46F52
:10014800400E0001C56F59EC05F0C3C0D6F0C4C01D
:10015800D7F0C5C0D8F0000E0001816F480E00012D
:10016800826F420E0001836F000E0CEC16F0ADECAE
:1001780017F068C072F069C073F06AC074F0D6C036
:100188006FF0D7C070F0D8C071F034EC06F06FC0D3
:100198007EF070C07FF071C080F0EFEC08F07EC098
:1001A80090F07FC091F080C092F00001DD51ADEC7D
:1001B80017F068C08DF069C08EF06AC08FF0FDEC52
:1001C80002F08DC099F08EC09AF08FC09BF046EC7B
:1001D80008F0000199510001DD6F0001DF2B9BD76A
:1001E8000001DE51010D400EF324D96E050EF420F6
:1001F800DA6EDDC0DFFF000E0001DD6F0001DE2BCF
:1002080082D7010E0001606F400E0001616F050E7C
:100218000001626F400E0001636F010E7DEC0FF06C
:1002280075D08BD0110E0501406F010E0001E06FF3
:100238002CD030D0000E81EC15F060C0D9F061C030
:10024800DAF00001E051010D400EF324D96E050EDD
:10025800F420DA6ED9C0DFFF0001E0510001D46F4D
:10026800D56B010E0001D427000ED523400E0001E6
:10027800D425D96E050E0001D521DA6E0001DA51B8
:10028800DF6E0001E051020FD1D73E0E0001E0659C
:10029800D1D700D0010E0001606F400E0001616FE0
:1002A800050E0001626F400E0001636F010E7DECC8
:1002B8000FF02CD00001E9510001EA11D8B407D0A1
:1002C800E9C0D9FFEAC0DAFF0001DFBE36D0000E70
:1002D80081EC15F060C0DBF061C0DCF0370E050181
:1002E800406FDBC041F50001DC510501426F010E92
:1002F8000001606F400E0001616F050E0001626F22
:10030800400E0001636F010E7DEC0FF060C0E9F054
:1003180061C0EAF012D005010051100AD8B4E0D645
:10032800010AD8B47FD7260AD8B4C4D7B70AD8B434
:10033800B2D6010AD8B4B3D600D0000E0001606F5F
:10034800000E0001616F050E0001626F400E000192
:10035800636F010E7DEC0FF060C0EBF061C0ECF054
:100368001200120004012205D8A411D00401205162
:100378001F0B0009D8A40BD0258E030E04012119E8
:10038800D8A402D0010E01D0000E186E00D00401CE
:100398002251D8A41200040120511F0B020AD8A42C
:1003A8001200040124510F0B0009D8B412000401F3
:1003B80024510F0B3F6E020E3F601200200E1B18D7
:1003C800D8A41200258E040124BF1BD00401245197
:1003D8000F0B3F6E3F50020DE50EF324D96E000E51
:1003E800F420DA6EDECF43F0DDCF44F0040124516F
:1003F8000F0B3F6E3F50010D110EF324D96E000E06
:100408001AD0040124510F0B3F6E3F50020D090E04
:10041800F324D96E000EF420DA6EDECF43F0DDCF80
:1004280044F0040124510F0B3F6E3F50010D0F0E95
:10043800F324D96E000EF420DA6EDF50426E00D03D
:1004480042B002D0439402D0438400D0040124BFB8
:100458000BD0040124510F0B3F6E3F50020DE50EE7
:10046800F324D96E000E0AD0040124510F0B3F6EFD
:100478003F50020D090EF324D96E000EF420DA6EF7
:1004880043C0DEFF44C0DDFF00D0030E0401211984
:10049800D8A42FD043C0D9FF44C0DAFFDFAE1CD0A8
:1004A800040124BF0BD0040124510F0B3F6E3F50B1
:1004B800010D110EF324D96E000E0AD00401245147
:1004C8000F0B3F6E3F50010D0F0EF324D96E000E37
:1004D800F420DA6EDF8200D043C0D9FF44C0DAFFCF
:1004E800000EDB8443C0D9FF44C0DAFF000EDB8E68
:1004F8001200040E431A43C0D9FF44C0DAFFDFAE2E
:100508001BD043C0D9FF44C0DAFF7F0EDF1643C0BB
:10051800D9FF44C0DAFF000EDB8C000E386E050EE2
:10052800376E43C039F044C03AF0000E3C6E020EFC
:100538003B6E00EC15F007D043C0D9FF44C0DAFF8A
:10054800000EDB8C00D0040E431A42B206D043C022
:10055800D9FF44C0DAFFDFAE31D0040124BF0BD08D
:10056800040124510F0B3F6E3F50010D110EF3246F
:10057800D96E000E0AD0040124510F0B3F6E3F5074
:10058800010D0F0EF324D96E000EF420DA6EDF92FF
:1005980000D043C0D9FF44C0DAFF3B0EDF16000E7F
:1005A800386E050E376E43C039F044C03AF0000E7D
:1005B8003C6E020E3B6E00EC15F007D043C0D9FF2D
:1005C80044C0DAFF3B0EDF1600D0040124510F0BA4
:1005D8003F6E3F50010D6A0EF324406E0F0EF4205B
:1005E800416E40C0D9FF41C0DAFFFE0EDF1612008F
:1005F80012008FC093F00001946B956B00018E354B
:100608000001933701E39481000193510001986F31
:1006180092C093F00001946B956B00019135000135
:10062800933701E39481000193510001976F000112
:1006380098510001D8B411D0000197510001985D7C
:10064800D8B012D000019851000800019725000188
:10065800936F180E0001936507D090C08DF091C07C
:100668008EF092C08FF01200000197510001D8B4AB
:1006780011D0000198510001975DD8B012D0000147
:1006880097510008000198250001936F180E00018A
:10069800936507D08DC08DF08EC08EF08FC08FF01F
:1006A8001200060E0001966F00018FAF03D0000103
:1006B800968F00D0000192AF02D00001968D000104
:1006C8008E8FFF0E00018D17FF0E00018E17000E92
:1006D80000018F170001918FFF0E00019017FF0E88
:1006E80000019117000E00019217000197510001B7
:1006F800985DD8B028D00001D890903791379237BC
:10070800000197070001985100019719D8B413D038
:100718000001960796C093F0070E00019317D8B40E
:100728000AD0E9D708D00001D8908F338E338D33A3
:100738000001982B00D00001975100019819D8B4F6
:1007480030D0F1D72ED0000198510001975DD8B074
:1007580028D00001D8908D378E378F370001980741
:100768000001985100019719D8B413D000019607D9
:1007780096C093F0070E00019317D8B40AD0E9D7B2
:1007880008D00001D8909233913390330001972B11
:1007980000D00001975100019819D8B402D0F1D7C0
:1007A80000D0000196AF12D0FF0E00018D1BFF0E86
:1007B80000018E1BFF0E00018F1B010E00018D270B
:1007C800000E00018E23000E00018F23000196AD5C
:1007D80013D0FF0E0001901BFF0E0001911BFF0EAE
:1007E8000001921B010E00019027000E00019123C9
:1007F800000E0001922300D0000E0001966F000148
:100808008D510001902700018E51000191230001B4
:100818008F5100019223000192AF16D0FF0E000104
:10082800901BFF0E0001911BFF0E0001921B010E91
:1008380000019027000E00019123000E0001922371
:10084800010E0001966F00D090C060F091C061F079
:1008580092C062F098C063F096C064F005EC0CF0AA
:1008680060C08DF061C08EF062C08FF0120012007F
:100878000001BA510001BB110001BC11D8A40AD073
:10088800000E0001BA6F800E0001BB6F3F0E000121
:10089800BC6F1200720E0001606F310E0001616FB3
:1008A800440E0001626FBAC063F0BBC064F0BCC004
:1008B80065F0CAEC10F00001D8B00FD0000E0001AE
:1008C800EE6F220EED6FFF0E0001BA6F7F0E000172
:1008D800BB6F7F0E0001BC6F1200BAC060F0BBC0D6
:1008E80061F0BCC062F0490E0001636F3A0E00016E
:1008F800646FC40E0001656FCAEC10F00001D8B037
:100908000FD0000E0001EE6F220EED6F000E0001F9
:10091800BA6F000E0001BB6F000E0001BC6F120021
:100928000001BCAF02D0010E01D0000E0001C26F61
:100938000001C2510001D8B40ED0BAC060F0BBC0EB
:1009480061F0BCC062F095EC17F060C0BAF061C00D
:10095800BBF062C0BCF0BAC06FF0BBC070F0BCC0E6
:1009680071F0AA0E0001726FB80E0001736F3F0E8E
:100978000001746F34EC06F06FC0BAF070C0BBF0C1
:1009880071C0BCF0BAC0B2F0BBC0B3F0BCC0B4F028
:100998001FEC0DF0B2C0BDF0B3C0BEF0B4C0BFF0E4
:1009A800BDC099F0BEC09AF0BFC09BF046EC08F0FD
:1009B80099C0C0F09AC0C1F0BAC099F0BBC09AF013
:1009C800BCC09BF0C0C068F0C1C069F088EC16F0EC
:1009D80068C09CF069C09DF06AC09EF060EC16F09B
:1009E80099C0BAF09AC0BBF09BC0BCF0BAC099F0ED
:1009F800BBC09AF0BCC09BF0920E00019C6F7F0EAA
:100A080000019D6F000E00019F6F090E9E6F95EC0F
:100A18000EF099C0A5F09AC0A6F09BC0A7F0C0C080
:100A2800A8F0C1C0A9F0E0EC0AF0A5C0BAF0A6C0D1
:100A3800BBF0A7C0BCF00001C2510001D8B42ED051
:100A48000001BA2913E17F0E0001BB190FE17F0EE7
:100A58000001BC19D8A40AD0000E0001BA6F000E1C
:100A68000001BB6F000E0001BC6F1200000E0001F8
:100A78007E6F800E00017F6F3F0E0001806FBAC04D
:100A880081F0BBC082F0BCC083F0EFEC08F07EC000
:100A9800BAF07FC0BBF080C0BCF01200BAC0BAF098
:100AA800BBC0BBF0BCC0BCF01200000E0001CF6F91
:100AB8000001C3510001C4110001C511D8A423D0FD
:100AC800000E0001606F000E0001616F000E000152
:100AD800626FC6C063F0C7C064F0C8C065F0CAECF6
:100AE80010F00001D8A005D0000E0001EE6F210E15
:100AF800ED6F000E0001C36F000E0001C46F000E01
:100B08000001C56F12000001C6510001C7110001A4
:100B1800C811D8A40AD0000E0001C36F800E0001CE
:100B2800C46F3F0E0001C56F12000001C5AF4DD064
:100B3800C6C099F0C7C09AF0C8C09BF046EC08F050
:100B480099C0D0F09AC0D1F09BC0D2F09CC0D3F02D
:100B5800D0C068F0D1C069F0D2C06AF0D3C06BF0E1
:100B680041EC15F00001C651000168190BE10001C4
:100B7800C7510001691906E10001C85100016A194D
:100B8800D8B40FD0000E0001EE6F210EED6F000EED
:100B98000001C36F000E0001C46F000E0001C56F95
:100BA80012000001D051010B0001CF6FC3C060F0EB
:100BB800C4C061F0C5C062F095EC17F060C0C3F026
:100BC80061C0C4F062C0C5F000D0C3C0A5F0C4C005
:100BD800A6F0C5C0A7F09DEC07F0A5C0C9F0A6C057
:100BE800CAF0A7C0CBF0C9C06FF0CAC070F0CBC0C4
:100BF80071F0C6C072F0C7C073F0C8C074F034ECAE
:100C080006F06FC0CCF070C0CDF071C0CEF0CCC093
:100C1800BAF0CDC0BBF0CEC0BCF03CEC04F0BAC01A
:100C2800C3F0BBC0C4F0BCC0C5F00001CF51000187
:100C3800D8B40FD0C3C060F0C4C061F0C5C062F0C2
:100C480095EC17F060C0C3F061C0C4F062C0C5F095
:100C58001200C3C0C3F0C4C0C4F0C5C0C5F01200C0
:100C680071C075F00001766B776B0001703500017B
:100C7800753701E37681000175510001786F000135
:100C88007851D8A40AD0000E00016F6F000E000141
:100C9800706F000E0001716F120074C075F00001D2
:100CA800766B776B000173350001753701E3768148
:100CB8000001755100017D6F00017D51D8A40AD053
:100CC800000E00016F6F000E0001706F000E000132
:100CD800716F120000017D517B0F0001782771C0F0
:100CE8007DF00001745100017D1B800E00017D170D
:100CF8000001708F0001738FFF0E00017217FF0E45
:100D080000017317000E00017417000E0001796FBF
:100D1800000E00017A6F000E00017B6F070E0001C4
:100D28007C6F00D000016FA10DD00001725100014D
:100D380079270001735100017A23000174510001E1
:100D48007B2300D00001D890713370336F330001DA
:100D5800D89072377337743700017C2FE3D700D0EF
:100D6800090E00017C6F00D000016FA10DD00001B9
:100D78007251000179270001735100017A230001A3
:100D8800745100017B2300D00001D8907133703377
:100D98006F330001D8907B337A33793300017C2F8D
:100DA800E3D700D079C060F07AC061F07BC062F010
:100DB80078C063F07DC064F005EC0CF060C06FF0A3
:100DC80061C070F062C071F012001200A394000EAE
:100DD800676E000E656E000E6A6E6B0E0001606F26
:100DE8000F0E0001616F000E0001636F000E626F4D
:100DF800000E0001656F010E646F2BEC17F0160EE4
:100E0800626E9F0E666E7B0E646E000E0001686F48
:100E180010D013D000016851040D000EF324D96ED0
:100E2800040EF420DA6EDE6ADE6ADE6ADD6A00012C
:100E3800682B070E00016865EDD7608C000E636EA5
:100E48006098609C00D06596000E256E000E046EBA
:100E5800000E066E000E056E65B6F5D7010E1C6E07
:100E6800010E1D6E000E0001F16F000E0001F26F01
:100E7800000E196E000E0001686F010E0001686512
:100E880001D033D000016851020D090EF324D96E48
:100E9800000EF420DA6E000EDE6E000EDD6E00012C
:100EA8006851020DE50EF324D96E000EF420DA6EB7
:100EB800000EDE6E000EDD6E00016851010D0F0E92
:100EC800F324D96E000EF420DA6E000EDF6E0001F6
:100ED8006851010D110EF324D96E000EF420DA6E5C
:100EE800000EDF6E0001682BC8D7080E096E040ECD
:100EF8000A6E160E6A6E040E0401036F200E026F4E
:100F0800080E0401016F040E0401006F0401008F34
:100F1800000E286E000E0001E16F000EE26F000E59
:100F2800E36F000EE46F000E0001F36F000E1B6EFE
:100F380012000001A7AF0FD0000E0001EE6F210EC6
:100F4800ED6F000E0001A56F000E0001A66F000EE8
:100F58000001A76F12000001A5510001A6110001B0
:100F6800A711D8A40FD0000E0001EE6F220EED6F6E
:100F7800000E0001A56F000E0001A66F000E000113
:100F8800A76F1200000E0001726F000E0001736F50
:100F9800400E0001746FA80E0001636F000E00017F
:100FA800646FA5C060F0A6C061F0A7C062F0ADECA8
:100FB80012F060C06FF061C070F062C071F034EC84
:100FC80006F06FC08DF070C08EF071C08FF0000E0B
:100FD8000001906F800E0001916FBF0E0001926FAB
:100FE800FDEC02F08DC0A5F08EC0A6F08FC0A7F072
:100FF8000001A807D8A0A907A5C099F0A6C09AF033
:10100800A7C09BF0CD0E00019C6F7F0E00019D6F65
:10101800000E00019F6F080E9E6F95EC0EF099C0B0
:10102800A5F09AC0A6F09BC0A7F0720E0001726FDF
:10103800310E0001736F3F0E0001746FA8C068F095
:10104800A9C069F088EC16F068C06FF069C070F04C
:101058006AC071F034EC06F06FC08DF070C08EF08D
:1010680071C08FF0A5C090F0A6C091F0A7C092F013
:10107800FDEC02F08DC0A5F08EC0A6F08FC0A7F0E1
:10108800120012009BC09DF000019E6B9F6B000137
:101098009A3500019D3701E39E8100019D510001B1
:1010A800A76F0001A751D8A40AD0000E0001996FBC
:1010B800000E9A6F000E9B6F000E9C6F1200170EA9
:1010C80000019D6F99C09EF09AC09FF09BC0A0F050
:1010D80000019D290001A16F05D00001D890A0331F
:1010E8009F339E330001A12FF8D700019E510001C4
:1010F800A26F00019A8FFF0E00019917FF0E0001E1
:101108009A17000E00019B17000199510001A36F67
:1011180000019A510001A46F00019B510001A56FC5
:101128000001A66B8E0E0001A75F0001A7AF1BD0C0
:101138000001A751800A8F0FD8B00BD0000E000114
:10114800996F000E9A6F000E9B6F000E9C6F120035
:1011580000D00001D890A633A533A433A3330001EF
:10116800A73FF7D71FD0170E0001A76514D0000EB0
:101178000001996F000E9A6F000E9B6F000E9C6F16
:10118800120009D00001D890A337A437A537A63795
:101198000001A70700D00001A7510001D8B402D070
:1011A800F1D700D00001A2510001D8B40AD0000143
:1011B800A61FA51FA41FA36D000EA423A523A62365
:1011C80000D0A3C099F0A4C09AF0A5C09BF0A6C017
:1011D8009CF01200120080C084F00001856B866BC1
:1011E80000017F350001843701E3858100018451C6
:1011F80000018B6F00018B51D8A40AD0000E0001AA
:101208007E6F000E00017F6F000E0001806F1200DC
:1012180083C084F00001856B866B00018235000174
:10122800843701E385810001845100018C6F00013E
:101238008C51D8A40AD0000E00017E6F000E000168
:101248007F6F000E0001806F1200000E0001886F92
:10125800000E0001896F000E00018A6F00018C5199
:10126800890F00018B5F80C08CF000018351000161
:101278008C1B800E00018C1700017F8FFF0E000170
:101288007E17FF0E00017F17000E00018017000176
:10129800828FFF0E00018117FF0E00018217000EDA
:1012A80000018317180E0001876F00D00001D89045
:1012B800883789378A370001815100017E5D000136
:1012C800825100017F590001835100018059D8A043
:1012D8000ED00001815100017E5F000182510001A2
:1012E8007F5B000183510001805B00018881000160
:1012F800D8907E377F3780370001872FD7D700D027
:1013080088C060F089C061F08AC062F08BC063F069
:101318008CC064F005EC0CF060C07EF061C07FF01A
:1013280062C080F0120012001B04D8B460BA07D063
:10133800000E656E64806488020E1B6E00D065B472
:1013480064A404D0659446EC17F000D060A202D0E3
:10135800A494120065B064A007D03CEC0AF0A38402
:10136800040E1B6E659000D065B864A803D0C5EC68
:1013780017F000D065AC1FD064AC0FD0000E386EEB
:10138800730E376E000E396E000E3A6E000E3C6E0C
:10139800010E3B6E00EC15F000D0659C08EC18F0CF
:1013A8001E50D8B402D01E0600D01E50D8A403D0B8
:1013B80031EC11F000D065BA64AA03D0ACEC16F099
:1013C80000D065B264A210D07F0E386E3768000E68
:1013D800396E000E3A6E000E3C6E010E3B6E00EC4C
:1013E80015F0000E676E00D0040E1B6002D0A494A6
:1013F800120064A63BD0000E466E030E466401D070
:1014080035D065A633D061CF2AF02A30E832E832E9
:101418000F0B206E65962AB407D02050010D110ECF
:10142800F324D96E000E06D02050010D0F0EF324C0
:10143800D96E000EF420DA6EDF7000D02050D8A4E8
:1014480003D0F0EC13F010D0000E386E720E376E29
:101458002A0E396E000E3A6E000E3C6E000E3B6E80
:1014680000EC15F001D002D0462AC7D7A494120088
:10147800A394000E676E000E656E000E6A6E6B0E0A
:101488002B6E0F0E2C6E000E2E6E000E2D6E000EA3
:10149800306E010E2F6EDCEC17F0160E626E9F0E8A
:1014A800666E7B0E646E000E336E0ED010D0335015
:1014B800040D000EF324D96E040EF420DA6EDE6AF1
:1014C800DE6ADE6ADD6A332A070E3364F0D7608C81
:1014D800000E636E6098609C00D06596000E256EC5
:1014E800000E046E000E066E000E056E65B6F5D78A
:1014F800010E1C6E010E1D6E000E0001F16F000E34
:101508000001F26F000E196E000E336E010E336487
:1015180001D02ED03350020D090EF324D96E000EDF
:10152800F420DA6E000EDE6E000EDD6E3350020D12
:10153800E50EF324D96E000EF420DA6E000EDE6E8E
:10154800000EDD6E3350010D0F0EF324D96E000E20
:10155800F420DA6E000EDF6E3350010D110EF32405
:10156800D96E000EF420DA6E000EDF6E332ACED765
:10157800080E096E040E0A6E160E6A6E040E040139
:10158800036F200E026F080E0401016F040E0401A0
:10159800006F0401008F000E286E000E0001E16F3D
:1015A800000EE26F000EE36F000EE46F000E000104
:1015B800F36F000E1B6E12000001A5510001A61169
:1015C8000001A711D8A40AD0000E0001A56F000ED3
:1015D8000001A66F000E0001A76F12000001A751BD
:1015E8007F0B0001AA6FAB6BD8900001AA37AB370D
:1015F8000001AA510001A8270001AB510001A9234D
:101608000001A6AF04D00001AA6BAA2B02D00001EA
:10161800AA6B0001AA510001A827000EA923000106
:10162800A9AF10D0000E0001EE6F220EED6F000E74
:101638000001A56F000E0001A66F000E0001A76F44
:10164800120045D00001A9BF20D00001A905D8A0EB
:101658001CD0000E0001EE6F220EED6F0001A7AF47
:101668000AD0FF0E0001A56F7F0E0001A66FFF0EC6
:10167800E5D712002CD0FF0E0001A56F7F0E0001E8
:10168800A66F7F0EDBD7120022D00001A935A93141
:101698000001AB6F0001A8310001AA6F0001A7513A
:1016A8000001AA19800BAA190001A76FA8C0AAF007
:1016B800010E0001AA170001AA33AA330001A6519E
:1016C8000001AA197F0BAA190001A66F00D0A5C0B6
:1016D800A5F0A6C0A6F0A7C0A7F012001200800EC1
:1016E80004012019D8A41200C00E256E7CD0E80E83
:1016F800226E7F0E236E000E276E120E266E1200CB
:1017080004012251D8A43ED004012251020D050E35
:10171800F324F66E7F0EF420F76E0900F5CF22F061
:101728000A00F5CF23F0020E22242B6E000E232090
:101738002C6E2BC0F6FF2CC0F7FFF86A070EF76473
:1017480003D00800F55005D0F6CFE1FFF7CFE2FF50
:10175800E750266E030E22242B6E000E23202C6EDB
:101768002BC0F6FF2CC0F7FFF86A070EF76403D00A
:101778000800F55005D0F6CFE1FFF7CFE2FFE750BC
:10178800276E1200000E256E1200030E040122615E
:1017980024D004012251020DFF0EF324F66E7E0EB2
:1017A800F420F76E0900F5CF22F00A00F5CF23F0F8
:1017B80022C0F6FF23C0F7FFF86A070EF76403D0CC
:1017C8000800F55005D0F6CFE1FFF7CFE2FFE7506C
:1017D8002B6E2B50266E276A1200000E256E120003
:1017E800000E256E120004012351010AD8B47FD7D8
:1017F800030AD8B485D7010AD8B4C7D7F1D71200DD
:101808001200000163510001D8B408D000016051F2
:101818000001611100016211D8A413D0000E00016B
:10182800606F000E0001616F000E0001626F120010
:1018380008D00001632B0001D89062336133603314
:1018480000D0000E000160150001656F000E000158
:1018580061150001666FFE0E000162150001676FD9
:10186800000165510001661100016711D8B413D059
:10187800E0D711D00001632B010E00016027000E94
:1018880000016123000E000162230001D890623339
:101898006133603300D0000E000160150001656FF0
:1018A800000E000161150001666FFF0E0001621550
:1018B8000001676F000165510001661100016711A1
:1018C800D8B40AD0D7D708D0000163070001D89050
:1018D80060376137623700D0000161BF05D0020E62
:1018E80000016361F1D700D0000163B103D00001AA
:1018F800619F00D00001D89063330001635100015B
:101908006213000164510001D8B403D00001628F52
:1019180000D060C060F061C061F062C062F0120087
:10192800120020EE01F01350D9261450DA22DF50AD
:101938002C6E2C50055C000E0658D8B003D005C09C
:101948002CF000D02C50055E000E065A000E2B6EAF
:1019580012D02B50010D280EF324D96E040EF4205A
:10196800DA6E01C0E1FF02C0E2FFDFCFE7FF014A04
:10197800022A2B2A00D02C502B5CD8A0EAD705507D
:101988000610D8B432D020EE01F01550D9261650E2
:10199800DA22080EDF6E20EE02F01550D926165016
:1019A800DA22280EDE6E040EDD6E13C0D9FF14C0D5
:1019B800DAFFDFBC0DD015C0D9FF16C0DAFF480E1C
:1019C800DF6E15C0D9FF16C0DAFF000EDB8E1200DD
:1019D80015C0D9FF16C0DAFF080EDF6E15C0D9FF93
:1019E80016C0DAFF000EDB8E120020EE01F0155053
:1019F800D9261650DA22080EDF6E20EE02F01550B6
:101A0800D9261650DA22200EDE6E040EDD6E15C0C1
:101A1800D9FF16C0DAFF040EDF6E15C0D9FF16C055
:101A2800DAFF000EDB8E049E1A50D8A4120031ECA7
:101A380011F012001200B2C060F0B3C061F0B4C07F
:101A480062F0B80E0001636F000E0001646FADEC28
:101A580012F00001B9AF17D00001B4AF0AD0000EE0
:101A68000001B26F800E0001B36FBF0E0001B46FAA
:101A78001200000E0001B26F000E0001B36F000EDD
:101A88000001B46F12000001B95105E1150E000103
:101A9800B85DD8A007D0B2C0B2F0B3C0B3F0B4C03C
:101AA800B4F01200B2C099F0B3C09AF0B4C09BF081
:101AB80046EC08F099C0A8F09AC0A9F09BC0AAF01B
:101AC8009CC0ABF004EC13F0A8C0B5F0A9C0B6F008
:101AD800AAC0B7F0B2C060F0B3C061F0B4C062F0A1
:101AE800B5C063F0B6C064F0B7C065F0CAEC10F0DA
:101AF8000001D8B018D0B5C08DF0B6C08EF0B7C010
:101B08008FF0000E0001906F800E0001916FBF0EE4
:101B18000001926FFDEC02F08DC0B2F08EC0B3F000
:101B28008FC0B4F01200B5C0B2F0B6C0B3F0B7C001
:101B3800B4F01200609825BE3BD004AE0ED0020E61
:101B48001F6E0001F251D8A403D055EC13F000D059
:101B5800000E1D6E000E1C6E120020EE01F01550D6
:101B6800D9261650DA22080EDF6E20EE02F0155044
:101B7800D9261650DA22200EDE6E040EDD6E15C050
:101B8800D9FF16C0DAFF0C0EDF6E15C0D9FF16C0DC
:101B9800DAFF000EDB8E09C0D9FF0AC0DAFF040E97
:101BA800DF6E09C0D9FF0AC0DAFF000EDB8E120013
:101BB800040120AF13D0010E1F6E0001F151D8A40B
:101BC80003D055EC13F000D0000E1D6E000E1C6EF5
:101BD8001A50D8A4120031EC11F01200020E1F6E38
:101BE80020EE01F01550D9261650DA22080EDF6EC5
:101BF80020EE02F01550D9261650DA22200EDE6E9D
:101C0800040EDD6E15C0D9FF16C0DAFF040EDF6EB4
:101C180015C0D9FF16C0DAFF000EDB8E000E1D6E50
:101C2800000E1C6E1A50D8A4120031EC11F01200EC
:101C38001200040120511F0BE806D8A4120001D09D
:101C4800120004012451D8A4120001D01200060E7B
:101C580004012119D8B41AD023D018D02804D8A444
:101C68001FD07B0E226E7F0E236E000E276E090E8C
:101C78000AD0C00E256E14D0B00E226E7F0E236ED1
:101C8800000E276E1D0E266EF4D70AD004012351CC
:101C9800210AD8B4E3D7030AD8B4EED7010A00D092
:101CA80004012039E832030BE806D8A4120023D037
:101CB800120021D01200F50E226E000E236E000EC7
:101CC800276E010E266EC10E256E1200800E256E3F
:101CD80023C4F5F01200F40E226E000E236E000EDF
:101CE800276E010E266E810E256E1200800E256E5F
:101CF80022C4F4F0120004012151010AD8B41200E0
:101D0800030AD8B4D8D7010AD8B4E5D70A0AD8B490
:101D18001200030AD8B4DAD7010AD8A41200E6D709
:101D280012009EC060F09FC061F0000E0001636F5A
:101D3800030E626F0FEC17F09CC0A0F09DC0A1F0DD
:101D4800000160510001A027000161510001A12399
:101D5800A0C0F6FFA1C0F7FF0900F5CFA2F0090067
:101D6800F5CFA3F00A00F5CFA4F045D0A2C072F0D9
:101D7800A3C073F0A4C074F099C06FF09AC070F05B
:101D88009BC071F034EC06F06FC08DF070C08EF01F
:101D980071C08FF0000E0001636F030E626F0001C7
:101DA8009E07D8A09F079EC060F09FC061F00FEC0F
:101DB80017F09CC0A0F09DC0A1F000016051000187
:101DC800A027000161510001A123A0C0F6FFA1C016
:101DD800F7FF0900F5CF90F00900F5CF91F00A0060
:101DE800F5CF92F0FDEC02F08DC0A2F08EC0A3F00A
:101DF8008FC0A4F000D000019E5100019F11D8A40B
:101E0800B5D7A2C099F0A3C09AF0A4C09BF0120065
:101E180004012039E832030B0009D8A4120046D087
:101E2800120044D0258E080E1B6E120073EC0BF0C6
:101E38001200ECEC0FF01200280E226E000E236E3A
:101E48002580010E266E258E120052EC12F012002B
:101E580000D0B6EC01F0120004012451010D290E46
:101E6800F324226E000EF420236E2580010E266EC8
:101E7800258E1200258E04012451010D290EF3240C
:101E8800D96E000EF420DA6E22C4DFFF1200000EB5
:101E9800386E020E376E000E396E000E3A6E000E66
:101EA8003C6E000E3B6E00EC15F01200040121514F
:101EB800000AD8B4CAD7010AD8B4CBD7020AD8B412
:101EC800C8D7060AD8B4AED7030AD8B4AFD7010A20
:101ED800D8B4DDD70F0AD8B4AFD7010AD8B4A9D778
:101EE800030AD8B4B9D7010AD8B4C4D7070A12006C
:101EF80012000001646F000160510001D8B408D0DD
:101F080000016451020D090EF324D96E000E07D0AA
:101F180000016451020DE50EF324D96E000EF42081
:101F2800DA6EDECF65F0DDCF66F000D000016551D6
:101F380000016611D8A407D0000E0001606F000EE2
:101F48000001616F1200000120EE02F06551D926F0
:101F58006651DA2261C0DEFF62C0DDFF000120EEBB
:101F680001F06551D9266651DA2263C0DFFF65C0EA
:101F7800D9FF66C0DAFF400EDF1665C0D9FF66C01C
:101F8800DAFF000EDB8665C0D9FF66C0DAFF000EF7
:101F9800DB8E000160510001D8B408D00001645103
:101FA800020D090EF324D96E000E07D0000164510A
:101FB800020DE50EF324D96E000EF420DA6E040E3D
:101FC800DF1A00D065C060F066C061F01200120030
:101FD800258E6B0E2B6E0F0E2C6E000E2E6E000EC5
:101FE8002D6E000E306E010E2F6EDCEC17F0000E19
:101FF8002B6E040E2C6E000E2E6E000E2D6E000E33
:10200800306E200E2F6EDCEC17F0608C000E3F6EE9
:10201800010E3F6401D016D03F50010D0F0EF3247E
:10202800D96E000EF420DA6E000EDF6E3F50010DFF
:10203800110EF324D96E000EF420DA6E000EDF6E56
:102048003F2AE6D7290E2B6E000E2C6E000E2E6E40
:10205800000E2D6E000E306E010E2F6EDCEC17F0A8
:10206800609C080E096E040E0A6E000E136E040EB4
:10207800146E13C015F014C016F022C428F02850AE
:10208800D8A403D0100E1B6E1200000E386E010E7D
:10209800376E280E396E000E3A6E000E3C6E010E39
:1020A8003B6E00EC15F0200E1B6E12001200080E9D
:1020B8002B6E275011E1080E265CD8B00DD026C033
:1020C8002BF02150D8A402D0010E04D02104D8A4AA
:1020D80003D0020E216E00D02B50265E000E275A28
:1020E80020EE01F00950D9260A50DA222BC0DFFF72
:1020F800280E0001EF6F040E0001F06F25A01ED01E
:102108003FD01CD022C0F6FF23C0F7FFF86AEFC00B
:10211800D9FFF0C0DAFF070EF76403D00800F550C6
:1021280005D0F6CFE1FFF7CFE2FFE750DF6E224A96
:10213800232A0001EF4BF02B2B0600D02B50D8B4EC
:102148001200E0D712001CD022C0F6FF23C0F7FF10
:10215800F86AEFC0D9FFF0C0DAFF070EF76403D0C2
:102168000800F55005D0F6CFE1FFF7CFE2FFE750C2
:10217800DF6E224A232A0001EF4BF02B2B0600D0FA
:102188002B50D8B41200E0D712001200000162AF41
:102198001ED060C066F061C067F062C068F00001E0
:1021A800661F671F681F662B000E67236823000ED3
:1021B800000166250001606F000E00016721000123
:1021C800616F800E000168210001626F00D000017C
:1021D80065AF1ED063C066F064C067F065C068F084
:1021E8000001661F671F681F662B000E67236823A0
:1021F800000E000166250001636F000E00016721D3
:102208000001646F800E000168210001656F00D035
:10221800000E0001601B000E0001611B800E000112
:10222800621B000E0001631B000E0001641B800E80
:102238000001651B000163510001605D00016451EC
:10224800000161590001655100016259D8B002D0FE
:10225800D8901200D880120012001C50D8A4120086
:10226800010E1C6E1D50D8A41200010E1D6E020E28
:102278001F18D8A415D020EE01F00950D9260A500D
:10228800DA22000EDF6E09C0D9FF0AC0DAFF480E55
:10229800DF6E09C0D9FF0AC0DAFF000EDB8E12001C
:1022A8001F04D8A41200000E176E20EE01F0135080
:1022B800D9261450DA22080EDF6E20EE02F01350F1
:1022C800D9261450DA22200EDE6E040EDD6E13C0FD
:1022D800D9FF14C0DAFF040EDF6E13C0D9FF14C093
:1022E800DAFF000EDB8E010E176E20EE01F015509E
:1022F800D9261650DA22080EDF6E20EE02F01550AD
:10230800D9261650DA22200EDE6E040EDD6E15C0B8
:10231800D9FF16C0DAFF800EDF6E120012002F6E92
:102328002B50D8B407D02F50020D090EF324D96EC4
:10233800000E06D02F50020DE50EF324D96E000EC4
:10234800F420DA6EDECF30F0DDCF31F000D030503F
:102358003110D8A405D0000E2B6E000E2C6E120082
:1023680020EE02F03050D9263150DA222CC0DEFFA0
:102378002DC0DDFF20EE01F03050D9263150DA2291
:102388002EC0DFFF30C0D9FF31C0DAFF400EDF16A4
:1023980030C0D9FF31C0DAFF000EDB8630C0D9FF6C
:1023A80031C0DAFF000EDB8E2B50D8B407D02F5087
:1023B800020D090EF324D96E000E06D02F50020D1F
:1023C800E50EF324D96E000EF420DA6E040EDF1A3F
:1023D80000D030C02BF031C02CF01200120009C020
:1023E800D9FF0AC0DAFF000EDFBC010E2C6E040E06
:1023F800091A080E1B18D8A40CD0040122517F0B0F
:10240800636E6350D8B402D0100E01D0040E1B6E58
:1024180000D01F04D8A43AD020EE02F00950D926E3
:102428000A50DA22280EDE6E040EDD6E5BEC10F028
:10243800020E2118D8A40DD009C0D9FF0AC0DAFFAE
:10244800040EDF6E09C0D9FF0AC0DAFF000EDB8E6A
:1024580012002C50D8A40DD009C0D9FF0AC0DAFF49
:10246800480EDF6E09C0D9FF0AC0DAFF000EDB8E06
:10247800120009C0D9FF0AC0DAFF080EDF6E09C0D2
:10248800D9FF0AC0DAFF000EDB8E120004AE02D0BC
:10249800049E00D0000E1F6E12001200000E0401F0
:1024A800286F000E0401296F3DD0258E03D004014A
:1024B800288100D01804D8A441D0040128833ED034
:1024C800258E3CD0258E040124BF0BD00401245155
:1024D8000F0B2B6E2B50020DE50EF324D96E000E58
:1024E8000AD0040124510F0B2B6E2B50020D090E3C
:1024F800F324D96E000EF420DA6EDECF2CF0DDCF97
:102508002DF000D02CC0D9FF2DC0DAFFDFAE16D0D9
:102518002CC0D9FF2DC0DAFFDFA410D0010E0401B2
:10252800286F0CD0040120511F0B000AD8B4BDD766
:10253800010AD8B4C5D7030AD8B4C4D725AE120047
:10254800280E226E040E236E2580020E266E1200BF
:102558001200000160510001611100016211D8A44C
:1025680012D063C0D9FF64C0DAFF000EDE6E000E21
:10257800DD6E000E0001606F000E0001616F000E3D
:102588000001626F1200000162517F0B0001656F4C
:10259800666BD89000016537663763C0D9FF64C0A1
:1025A800DAFF65C0DEFF66C0DDFF000161AF04D061
:1025B8000001656B652B02D00001656B0001655158
:1025C80063C0D9FF64C0DAFFDE12000EDD1263C0FB
:1025D800D9FF64C0DAFF820EDE26FF0EDD2262819B
:1025E8006283628562876289628B629D0001619F56
:1025F80060C060F061C061F062C062F01200120059
:10260800000E0001B16F8E0E0001B06F0001ABAF7C
:1026180016D00001AB1FAA1FA91FA86D000EA92381
:10262800AA23AB23010E0001B16F09D00001D89095
:10263800AB33AA33A933A8330001B02B00D0000E66
:102648000001A8150001AC6F000E0001A9150001DA
:10265800AD6F000E0001AA150001AE6FFF0E00015C
:10266800AB150001AF6F0001AC510001AD110001C5
:10267800AE110001AF11D8A4D9D7A8C060F0A9C085
:1026880061F0AAC062F0B0C063F0B1C064F005ECBC
:102698000CF060C0A8F061C0A9F062C0AAF01200F6
:1026A8001200000E0001F16F000E0001F26F020E21
:1026B8001F18D8A41FD020EE01F01550D9261650A7
:1026C800DA22080EDF6E20EE02F01550D9261650D9
:1026D800DA22280EDE6E040EDD6E15C0D9FF16C094
:1026E800DAFF480EDF6E15C0D9FF16C0DAFF000EFC
:1026F800DB8E120026500401265D2750040127595D
:10270800D8B005D026C426F027C427F000D05BEC4B
:1027180010F020EE02F00950D9260A50DA22280ECD
:10272800DE6E040EDD6E09C0D9FF0AC0DAFF480E5E
:10273800DF6E09C0D9FF0AC0DAFF000EDB8E120077
:102748001200306E000E316E040E326E2B502C6E5D
:102758002D6AD8902C362D3630502E6E2F6AD89090
:102768002E362F36D8902E362F362C502E262D501A
:102778002F22D8902E362F36D8902E362F362E5020
:1027880031262F50322231C0D9FF32C0DAFFDF9E06
:102798002B50D8A407D03050020DE50EF324D96E83
:1027A800000E06D03050020D090EF324D96E000E2B
:1027B800F420DA6E31C0DEFF32C0DDFF00D031C058
:1027C800D9FF32C0DAFFDF9C20EE04F03150D92661
:1027D8003250DA22DF8C12002D0E1E6E2AC045F010
:1027E800FD0E4516D8A438D02AC045F0D8904532F9
:1027F8003F0E45164550040D000EF324136E040ECB
:10280800F420146E13C015F014C016F0040E151A37
:1028180013C0D9FF14C0DAFFDF30E8320F0B0D0AFE
:10282800D8A417D0200E2B6E040E2C6E20EE02F0CA
:102838001350D9261450DA22DECF2DF0DDCF2EF03A
:10284800000E306E080E2F6ECEEC16F039EC14F038
:102858001200B1EC15F012002A50FD0B040AD8A49E
:102868001200F3EC11F012001200000E216E000E9F
:102878001A6E000E0001F16F000E0001F26F000EDB
:10288800176E000E1F6E09C0D9FF0AC0DAFF7F0E4F
:10289800DF16040E091A09C0D9FF0AC0DAFF7F0E35
:1028A800DF16040E091A15C0D9FF16C0DAFF7F0E0D
:1028B800DF16000E256E000E276E000E266E000E27
:1028C800046E000E066E000E056E0CEC0FF0000E86
:1028D800386E030E376E000E396E000E3A6E000E1B
:1028E8003C6E000E3B6E00EC15F09EEC0DF01200F5
:1028F8001904D8A438D0000EBCEC18F0120033D05C
:102908000D040E10D8A404D0000EAFEC18F030D08F
:102918004B0E0D180E10D8A404D0000EBCEC18F005
:1029280027D00E5004E1970E0D5CD8A021D0000EE0
:102938000E6E000E0D6E1CD00D040E10D8A404D01F
:10294800000EAFEC18F014D0320E0D180E10D8A4EB
:1029580004D0000EBCEC18F00BD0B70E0D5C030EC3
:102968000E58E3D705D01B50200AD8B4C9D7E4D7EE
:102978000D4A0E2A1200000E00016C6F000E6B6FDC
:102988000001685100016911D8B431D0010E00016D
:102998006A6F07D00001D8906837693700016A2B41
:1029A80000D0000169BF02D0F5D700D00001D8904F
:1029B8006B376C37000168510001665D0001695191
:1029C80000016759D8A00BD0000168510001665F6B
:1029D800000169510001675B00016B8100D00001B3
:1029E800D8906933683300016A2FE0D700D06BC0F4
:1029F80066F06CC067F0120016D012007CEC14F080
:102A080012007CEC14F0010E36EC16F012007CEC8F
:102A180014F0020E36EC16F0120061EC17F01200FA
:102A28001DEC0EF0120037C03DF038C03EF03E50AD
:102A3800000AD8B404D07F0AD8A412001AD03D5096
:102A4800010AD8B4EAD7030AD8B41200010AD8B4E4
:102A5800E7D7060AD8B41200770AD8B41200010AD8
:102A6800D8B4CCD7070AD8B4D2D7010AD8A4120050
:102A7800C8D73D50FF0A120012008E0E0001706F79
:102A880009D00001D8906B336A3369336833000189
:102A9800702B00D0000E0001681500016C6F000E4D
:102AA8000001691500016D6F000E00016A15000133
:102AB8006E6FFF0E00016B1500016F6F00016C5106
:102AC80000016D1100016E1100016F11D8A4D9D752
:102AD80068C060F069C061F06AC062F070C063F0FD
:102AE800000E0001646F05EC0CF060C068F061C076
:102AF80069F062C06AF0120012000001656F06D02A
:102B08000AD0000160696169120005D000016551B1
:102B1800000AD8A4F6D765C062F000016247624790
:102B2800C25000016219830B6219C26EC282D5ECD1
:102B380018F000D0C2B2FED7C4CF63F00001646BB6
:102B480000016351646F636BC3500001631363C07A
:102B580060F064C061F012001200020E1F18D8A4C1
:102B680003D095EC0CF01200000E1F6E1750D8A47D
:102B78001FD020EE01F01550D9261650DA22080E83
:102B8800DF6E20EE02F01550D9261650DA22200EFC
:102B9800DE6E040EDD6E15C0D9FF16C0DAFF0C0E0E
:102BA800DF6E15C0D9FF16C0DAFF000EDB8E1200EB
:102BB800000E176E120012000001616F1ED0800E09
:102BC8009B6E700ED36E100ED26E00D0D2AEFED7B2
:102BD800900EB56E000E40EC18F0010E40EC18F0A7
:102BE800010E51EC18F0000E73EC18F0000E1CECFE
:102BF80018F0010E1CEC18F0120000016151000AD7
:102C0800D8B4DDD7010AD8B41200030A12001200A2
:102C180000016D6F04D008D0FF0E120005D000012E
:102C28006D51000AD8A4F8D700016D5181EC15F058
:102C380060C066F061C067F0000E0001696F0A0E9F
:102C4800686FBFEC14F00001665100016E6F640EEE
:102C580000016E6503D0640E00016E6F00016E51B5
:102C6800120012002C6E1ED0800E9B6E700ED36E5A
:102C7800100ED26E00D0D2AEFED7900EB56E000EFA
:102C880091EC18F0010E91EC18F0010EA0EC18F080
:102C9800000EC9EC18F0000E62EC18F0010E62ECA0
:102CA80018F012002C50000AD8B4DED7010AD8B4A4
:102CB8001200030A1200120000019C5100019D112C
:102CC80000019E11D8B40AD0000E00019C1B000E12
:102CD80000019D1B800E00019E1B00D099C08DF045
:102CE8009AC08EF09BC08FF09CC090F09DC091F070
:102CF8009EC092F0FDEC02F08DC099F08EC09AF063
:102D08008FC09BF012001200000E00016B6F0001D3
:102D180069AF09D00001686D691FD8B0692B010E31
:102D280000016B6F00D068C060F069C061F00001FD
:102D3800626B8E0E0001636F6BC064F005EC0CF0E3
:102D480060C068F061C069F062C06AF012001200E9
:102D58006AA01ED013C0D9FF14C0DAFF800EDE1897
:102D6800D8A415D009C0D9FF0AC0DAFF840EDE182E
:102D7800D8A40DD013C0D9FF14C0DAFF0C0EDF6E33
:102D880013C0D9FF14C0DAFF000EDB8E00D06A90A2
:102D9800659A12002DC033F02EC034F02BC031F0EC
:102DA8002CC032F00FD033C0D9FF34C0DAFF31C0A5
:102DB800E1FF32C0E2FFDFCFE7FF334A342A314A6E
:102DC800322A00D02F06D8A030062F28ECE1302870
:102DD800D8A4E9D71200366E33A406D0000E2B6EA5
:102DE8003650A5EC13F000D033A206D0010E2B6E9E
:102DF8003650A5EC13F000D03650010D6A0EF324BE
:102E0800346E0F0EF420356E34C0D9FF35C0DAFFAA
:102E180033C0DFFF12000001605100016203F3CFED
:102E280064F0F4CF65F00001605100016303F350D2
:102E3800000165270001615100016203F3500001A0
:102E4800652764C060F065C061F01200120060C0C0
:102E580066F061C067F00AD066C0D9FF67C0DAFFC4
:102E680062C0DFFF0001664B672B00D000016407DA
:102E7800D8A0650700016429EFE100016529D8A4FD
:102E8800EBD71200000E196E000E386E740E376EF6
:102E9800000E396E000E3A6E000E3C6E000E3B6E50
:102EA80000EC15F06092649402D0659400D065B48B
:102EB800FCD7000E0001F36F1200000E0001E96F4D
:102EC800000E0001EA6F1E0E336E010EEFEC16F0D5
:102ED800000E2B6E000E2C6E050E2D6E400E2E6E03
:102EE800010E93EC11F02BC0EBF02CC0ECF01200AB
:102EF8001B50D8A41200000E606E000E646E160EF1
:102F0800626E9F0E666E7B0E646ED08EA584A3845F
:102F1800F28E01D0608660A6FDD7010E1B6E1200EE
:102F28001200000160510001611100016211D8B462
:102F380009D0000E0001601B000E0001611B800E0D
:102F48000001621B60C060F061C061F062C062F0A5
:102F5800120000016B6F00016B510001606F616B23
:102F6800626B8E0E0001636F000E0001646F05EC4A
:102F78000CF060C068F061C069F062C06AF01200CD
:102F88001200648465986082010E196E000E0001BB
:102F9800F36F000E386E750E376E000E396E000E28
:102FA8003A6E000E3C6E000E3B6E00EC15F01200FF
:102FB8002BC031F02CC032F009D031C0D9FF32C05B
:102FC800DAFF2DC0DFFF314A322A00D02F06D8A001
:102FD80030062F28F2E13028D8A4EFD71200000ECF
:102FE800E0EC15F0EAEC06F07CEC17F000D0200ECF
:102FF8001B6001D0FCD760B2FAD701D0F8D741ECFA
:1030080000F0F5D73FEF00F0010E0001E127000EB8
:10301800E223E323E4231950D8A412000001F32B80
:103028000001F351D8A412000001F3691200120044
:103038000001606F06D092800F015B8112009490AE
:10304800120000016051000AD8B4F5D7010AD8A4CB
:103058001200F5D7120000EEE1F0150EEE6AE80650
:10306800FDE100EE01F02A0EEE6AE806FDE1000E31
:10307800F86E0001F3EF17F00001606F04D094942C
:103088000F015D95120000016051000AD8B41200CA
:10309800010AD8A41200F3D712000001606F04D00F
:1030A80095860F015E97120000016051000AD8B49E
:1030B8001200010AD8A41200F3D712002B6E06D012
:1030C80092800F015B811200949012002B50000A2D
:1030D800D8B4F6D7010AD8A41200F6D71200000116
:1030E800606F000160510001D8A41200000EC16E8B
:1030F800BE0EC06E010EC26E120012000001606F9B
:1031080002D08B74120000016051000AD8B412007A
:10311800010AD8A41200F5D712002B6E04D094949B
:103128000F015D9512002B50000AD8B41200010A55
:10313800D8A41200F4D712002B6E04D095860F0184
:103148005E9712002B50000AD8B41200010AD8A4C6
:103158001200F4D712002B6E02D08B8412002B5071
:10316800000AD8B41200010AD8A41200F6D7120037
:103178002B6E02D08B9412002B50000AD8B4120088
:10318800010AD8A41200F6D712002B6E2B50D8A42F
:103198001200000EC16EBE0EC06E010EC26E12008D
:0831A80012008B808B901200D5
:107EFE0000FA7F077F3B7F697F34034D0069006383
:107F0E000072006F0063006800690070002000546A
:107F1E00006500630068006E006F006C006F006704
:107F2E00007900200049006E0063002E002E0353DE
:107F3E000069006D0070006C00650020004800496B
:107F4E00004400200044006500760069006300656F
:107F5E00002000440065006D006F00090229000139
:107F6E000100C032090400000203000000092111C3
:107F7E00010001221D0007058103400001070501D4
:107F8E000340000100803F72313FFE753E58633D55
:107F9E00951D3CC5AE3A79213994803793A7355655
:107FAE0015340600FF0901A101190129401500260B
:107FBE00FF00750895408100190129409100C0000D
:107FCE00000000803FF0FFBEE2A93E8376BEAE2BDE
:107FDE003E3CC3BDD2133D78D3BB1201000200005C
:107FEE000008D8043F000001010200010403090447
:027FFE00000081
:020000040020DA
:08000000FFFFFFFFFFFFFFFF00
:020000040030CA
:0E00000021081F3EFF9181FF0FC00FE00F404F
:00000001FF
