:040000003FEF00F0DE
:10000800FACF47F0FBCF48F0E9CF49F0EACF4AF002
:10001800E1CF4BF0E2CF4CF0D9CF4DF0DACF4EF034
:10002800F3CF4FF0F4CF50F0F6CF51F0F7CF52F0B6
:10003800F8CF53F0F5CF54F09BEC09F054C0F5FF1E
:1000480053C0F8FF52C0F7FF51C0F6FF50C0F4FF8D
:100058004FC0F3FF4EC0DAFF4DC0D9FF4CC0E2FFDE
:100068004BC0E1FF4AC0EAFF49C0E9FF48C0FBFFB7
:1000780047C0FAFF1100D0EF18F00001EC51000161
:10008800ED11D8B44BD1ECC0D9FFEDC0DAFF0001B7
:10009800DFBE120043D1010E49EC18F0020E49EC04
:1000A80018F04ED10001EA510001EB11D8B407D085
:1000B800EAC0D9FFEBC0DAFF0001DFBE41D1810EF3
:1000C8000501406F010E0001606F400E0001616F75
:1000D800050E0001626F400E0001636F010E80EC97
:1000E8000FF017D12DD10001EA510001EB11D8B45E
:1000F80007D0EAC0D9FFEBC0DAFF0001DFBE20D18C
:10010800100E0501406F010E0001DF6F3F0E000168
:10011800DF6501D079D0000E0001E06F070E000105
:10012800E06501D060D00001E051D8EC17F068C05C
:10013800C7F069C0C8F06AC0C9F0000E0001C46FFA
:10014800000E0001C56F400E0001C66F5CEC05F0A3
:10015800C4C0D7F0C5C0D8F0C6C0D9F0000E0001A1
:10016800826F480E0001836F420E0001846F000EFB
:1001780049EC16F0D8EC17F068C073F069C074F059
:100188006AC075F0D7C070F0D8C071F0D9C072F0ED
:1001980037EC06F070C07FF071C080F072C081F05B
:1001A800F2EC08F07FC091F080C092F081C093F02B
:1001B8000001DE51D8EC17F068C08EF069C08FF0EE
:1001C8006AC090F000EC03F08EC09AF08FC09BF0EC
:1001D80090C09CF049EC08F000019A510001DE6FD4
:1001E8000001E02B9BD70001DF51010D400EF324E5
:1001F800D96E050EF420DA6EDEC0DFFF000E0001B6
:10020800DE6F0001DF2B82D7010E0001606F400E08
:100218000001616F050E0001626F400E0001636FFF
:10022800010E80EC0FF075D08BD0110E0501406FD8
:10023800010E0001E16F2CD030D0000E84EC15F0D7
:1002480061C0DAF062C0DBF00001E151010D400E3F
:10025800F324D96E050EF420DA6EDAC0DFFF000150
:10026800E1510001D56FD66B010E0001D527000EB4
:10027800D623400E0001D525D96E050E0001D621E2
:10028800DA6E0001DB51DF6E0001E151020FD1D7B8
:100298003E0E0001E165D1D700D0010E0001606F6C
:1002A800400E0001616F050E0001626F400E0001F3
:1002B800636F010E80EC0FF02CD00001EA510001B1
:1002C800EB11D8B407D0EAC0D9FFEBC0DAFF0001C0
:1002D800DFBE36D0000E84EC15F061C0DCF062C0E1
:1002E800DDF0370E0501406FDCC041F50001DD513E
:1002F8000501426F010E0001606F400E0001616F41
:10030800050E0001626F400E0001636F010E80EC64
:100318000FF060C0EAF061C0EBF012D005010051A7
:10032800100AD8B4E0D6010AD8B47FD7260AD8B4C0
:10033800C4D7B70AD8B4AFD6010AD8B4B3D600D058
:10034800000E0001606F000E0001616F050E0001D4
:10035800626F400E0001636F010E80EC0FF060C009
:10036800ECF061C0EDF01200120004012205D8A4DF
:1003780011D0040120511F0B0009D8A40BD0258EE1
:10038800030E04012119D8A402D0010E01D0000ED9
:10039800186E00D004012251D8A412000401205183
:1003A8001F0B020AD8A41200040124510F0B0009E4
:1003B800D8B41200040124510F0B3F6E020E3F60A7
:1003C8001200200E1B18D8A41200258E040124BF89
:1003D8001BD0040124510F0B3F6E3F50020DE60E57
:1003E800F324D96E000EF420DA6EDECF43F0DDCFB1
:1003F80044F0040124510F0B3F6E3F50010D110EC4
:10040800F324D96E000E1AD0040124510F0B3F6E4D
:100418003F50020D090EF324D96E000EF420DA6E57
:10042800DECF43F0DDCF44F0040124510F0B3F6EC3
:100438003F50010D0F0EF324D96E000EF420DA6E32
:10044800DF50426E00D042B002D0439402D04384C1
:1004580000D0040124BF0BD0040124510F0B3F6EC0
:100468003F50020DE60EF324D96E000E0AD00401A7
:1004780024510F0B3F6E3F50020D090EF324D96E25
:10048800000EF420DA6E43C0DEFF44C0DDFF00D06A
:10049800030E04012119D8A42FD043C0D9FF44C0AA
:1004A800DAFFDFAE1CD0040124BF0BD004012451B5
:1004B8000F0B3F6E3F50010D110EF324D96E000E45
:1004C8000AD0040124510F0B3F6E3F50010D0F0E4F
:1004D800F324D96E000EF420DA6EDF8200D043C018
:1004E800D9FF44C0DAFF000EDB8443C0D9FF44C003
:1004F800DAFF000EDB8E1200040E431A43C0D9FF48
:1005080044C0DAFFDFAE1BD043C0D9FF44C0DAFFD6
:100518007F0EDF1643C0D9FF44C0DAFF000EDB8C24
:10052800000E386E050E376E43C039F044C03AF0FD
:10053800000E3C6E020E3B6E03EC15F007D043C074
:10054800D9FF44C0DAFF000EDB8C00D0040E431A3A
:1005580042B206D043C0D9FF44C0DAFFDFAE31D083
:10056800040124BF0BD0040124510F0B3F6E3F50F0
:10057800010D110EF324D96E000E0AD00401245186
:100588000F0B3F6E3F50010D0F0EF324D96E000E76
:10059800F420DA6EDF9200D043C0D9FF44C0DAFFFE
:1005A8003B0EDF16000E386E050E376E43C039F06D
:1005B80044C03AF0000E3C6E020E3B6E03EC15F0A0
:1005C80007D043C0D9FF44C0DAFF3B0EDF1600D086
:1005D800040124510F0B3F6E3F50010D6A0EF324A6
:1005E800406E0F0EF420416E40C0D9FF41C0DAFFC3
:1005F800FE0EDF161200120090C094F00001956BF9
:10060800966B00018F350001943701E39581000155
:1006180094510001996F93C094F00001956B966B0B
:10062800000192350001943701E39581000194514E
:100638000001986F000199510001D8B411D0000150
:1006480098510001995DD8B012D000019951000865
:10065800000198250001946F180E0001946507D0D9
:1006680091C08EF092C08FF093C090F012000001FC
:1006780098510001D8B411D0000199510001985D3A
:10068800D8B012D000019851000800019925000146
:10069800946F180E0001946507D08EC08EF08FC03D
:1006A8008FF090C090F01200060E0001976F0001C5
:1006B80090AF03D00001978F00D0000193AF02D014
:1006C8000001978D00018F8FFF0E00018E17FF0E1E
:1006D80000018F17000E000190170001928FFF0E86
:1006E80000019117FF0E00019217000E00019317E9
:1006F800000198510001995DD8B028D00001D89028
:1007080091379237933700019807000199510001FA
:100718009819D8B413D00001970797C094F0070E22
:1007280000019417D8B40AD0E9D708D00001D890AE
:1007380090338F338E330001992B00D000019851EC
:1007480000019919D8B430D0F1D72ED000019951B1
:100758000001985DD8B028D00001D8908E378F3727
:100768009037000199070001995100019819D8B4F0
:1007780013D00001970797C094F0070E0001941753
:10078800D8B40AD0E9D708D00001D890933392336F
:1007980091330001982B00D000019851000199195C
:1007A800D8B402D0F1D700D0000197AF12D0FF0E15
:1007B80000018E1BFF0E00018F1BFF0E0001901B16
:1007C800010E00018E27000E00018F23000E00018C
:1007D8009023000197AD13D0FF0E0001911BFF0E6F
:1007E8000001921BFF0E0001931B010E00019127CF
:1007F800000E00019223000E0001932300D0000E8A
:100808000001976F00018E510001912700018F515F
:10081800000192230001905100019323000193AF3E
:1008280016D0FF0E0001911BFF0E0001921BFF0E58
:100838000001931B010E00019127000E0001922375
:10084800000E00019323010E0001976F00D091C0A4
:1008580060F092C061F093C062F099C063F097C0F5
:1008680064F008EC0CF060C08EF061C08FF062C0DC
:1008780090F0120012000001BB510001BC110001F0
:10088800BD11D8A40AD0000E0001BB6F800E000174
:10089800BC6F3F0E0001BD6F1200720E0001606F49
:1008A800310E0001616F440E0001626FBBC063F03E
:1008B800BCC064F0BDC065F0CDEC10F00001D8B04C
:1008C8000FD0000E0001EF6F220EEE6FFF0E000139
:1008D800BB6F7F0E0001BC6F7F0E0001BD6F120061
:1008E800BBC060F0BCC061F0BDC062F0490E000141
:1008F800636F3A0E0001646FC40E0001656FCDECA2
:1009080010F00001D8B00FD0000E0001EF6F220EDA
:10091800EE6F000E0001BB6F000E0001BC6F000EF1
:100928000001BD6F12000001BDAF02D0010E01D061
:10093800000E0001C36F0001C3510001D8B40ED0EE
:10094800BBC060F0BCC061F0BDC062F0C0EC17F085
:1009580060C0BBF061C0BCF062C0BDF0BBC070F04D
:10096800BCC071F0BDC072F0AA0E0001736FB80E62
:100978000001746F3F0E0001756F37EC06F070C010
:10098800BBF071C0BCF072C0BDF0BBC0B3F0BCC05E
:10099800B4F0BDC0B5F022EC0DF0B3C0BEF0B4C0E9
:1009A800BFF0B5C0C0F0BEC09AF0BFC09BF0C0C0D9
:1009B8009CF049EC08F09AC0C1F09BC0C2F0BBC0E3
:1009C8009AF0BCC09BF0BDC09CF0C1C068F0C2C02A
:1009D80069F09BEC16F068C09DF069C09EF06AC093
:1009E8009FF073EC16F09AC0BBF09BC0BCF09CC0A3
:1009F800BDF0BBC09AF0BCC09BF0BDC09CF0920E8D
:100A080000019D6F7F0E00019E6F000E0001A06F18
:100A1800090E9F6F98EC0EF09AC0A6F09BC0A7F045
:100A28009CC0A8F0C1C0A9F0C2C0AAF0E3EC0AF0CB
:100A3800A6C0BBF0A7C0BCF0A8C0BDF00001C35160
:100A48000001D8B42ED00001BB2913E17F0E0001AC
:100A5800BC190FE17F0E0001BD19D8A40AD0000E01
:100A68000001BB6F000E0001BC6F000E0001BD6FDE
:100A78001200000E00017F6F800E0001806F3F0E94
:100A88000001816FBBC082F0BCC083F0BDC084F0A0
:100A9800F2EC08F07FC0BBF080C0BCF081C0BDF0B4
:100AA8001200BBC0BBF0BCC0BCF0BDC0BDF01200A2
:100AB800000E0001D06F0001C4510001C5110001F2
:100AC800C611D8A423D0000E0001606F000E0001EB
:100AD800616F000E0001626FC7C063F0C8C064F0A8
:100AE800C9C065F0CDEC10F00001D8A005D0000E0B
:100AF8000001EF6F210EEE6F000E0001C46F000EB3
:100B08000001C56F000E0001C66F12000001C75139
:100B18000001C8110001C911D8A40AD0000E0001B3
:100B2800C46F800E0001C56F3F0E0001C66F120032
:100B38000001C6AF4DD0C7C09AF0C8C09BF0C9C06D
:100B48009CF049EC08F09AC0D1F09BC0D2F09CC050
:100B5800D3F09DC0D4F0D1C068F0D2C069F0D3C042
:100B68006AF0D4C06BF044EC15F00001C7510001E5
:100B780068190BE10001C8510001691906E100017B
:100B8800C95100016A19D8B40FD0000E0001EF6FE7
:100B9800210EEE6F000E0001C46F000E0001C56F3C
:100BA800000E0001C66F12000001D151010B0001B7
:100BB800D06FC4C060F0C5C061F0C6C062F0C0ECC0
:100BC80017F060C0C4F061C0C5F062C0C6F000D0C4
:100BD800C4C0A6F0C5C0A7F0C6C0A8F0A0EC07F036
:100BE800A6C0CAF0A7C0CBF0A8C0CCF0CAC070F0AD
:100BF800CBC071F0CCC072F0C7C073F0C8C074F03D
:100C0800C9C075F037EC06F070C0CDF071C0CEF0F9
:100C180072C0CFF0CDC0BBF0CEC0BCF0CFC0BDF02D
:100C28003FEC04F0BBC0C4F0BCC0C5F0BDC0C6F00A
:100C38000001D0510001D8B40FD0C4C060F0C5C0C5
:100C480061F0C6C062F0C0EC17F060C0C4F061C0CB
:100C5800C5F062C0C6F01200C4C0C4F0C5C0C5F07B
:100C6800C6C0C6F0120072C076F00001776B786BD0
:100C7800000171350001763701E377810001765173
:100C88000001796F00017951D8A40AD0000E000143
:100C9800706F000E0001716F000E0001726F12007C
:100CA80075C076F00001776B786B00017435000130
:100CB800763701E377810001765100017E6F0001EC
:100CC8007E51D8A40AD0000E0001706F000E0001FA
:100CD800716F000E0001726F120000017E517B0FD0
:100CE8000001792772C07EF00001755100017E1B5A
:100CF800800E00017E170001718F0001748FFF0EB6
:100D080000017317FF0E00017417000E000175171C
:100D1800000E00017A6F000E00017B6F000E0001CB
:100D28007C6F070E00017D6F00D0000170A10DD00F
:100D38000001735100017A270001745100017B23DF
:100D48000001755100017C2300D00001D890723356
:100D5800713370330001D8907337743775370001D9
:100D68007D2FE3D700D0090E00017D6F00D0000170
:100D780070A10DD00001735100017A270001745150
:100D880000017B230001755100017C2300D0000184
:100D9800D8907233713370330001D8907C337B3331
:100DA8007A3300017D2FE3D700D07AC060F07BC092
:100DB80061F07CC062F079C063F07EC064F008EC3A
:100DC8000CF060C070F061C071F062C072F0120087
:100DD8001200A394000E676E000E656E000E6A6E18
:100DE8006B0E0001606F0F0E0001616F000E0001B5
:100DF800636F000E626F000E0001656F010E646F75
:100E08003EEC17F0160E626E9F0E666E7B0E646ED9
:100E1800000E0001686F10D013D000016851040D56
:100E2800000EF324D96E040EF420DA6EDE6ADE6A50
:100E3800DE6ADD6A0001682B070E00016865EDD7E0
:100E4800608C000E636E6098609C00D06596000E02
:100E5800256E000E046E000E066E000E056E65B659
:100E6800F5D7010E1C6E010E1D6E000E0001F26F0B
:100E7800000E0001F36F000E196E000E0001686F7E
:100E8800010E0001686501D033D000016851020DE0
:100E9800090EF324D96E000EF420DA6E000EDE6E11
:100EA800000EDD6E00016851020DE60EF324D96EC6
:100EB800000EF420DA6E000EDE6E000EDD6E00010C
:100EC8006851010D0F0EF324D96E000EF420DA6E6E
:100ED800000EDF6E00016851010D110EF324D96E6A
:100EE800000EF420DA6E000EDF6E0001682BC8D702
:100EF800080E096E040E0A6E160E6A6E040E0401C0
:100F0800036F200E026F080E0401016F040E040126
:100F1800006F0401008F000E286E000E0001E26FC2
:100F2800000EE36F000EE46F000EE56F000E000187
:100F3800F46F000E1B6E12000001A8AF0FD0000E58
:100F48000001EF6F210EEE6F000E0001A66F000E7C
:100F58000001A76F000E0001A86F12000001A65142
:100F68000001A7110001A811D8A40FD0000E00019C
:100F7800EF6F220EEE6F000E0001A66F000E00014B
:100F8800A76F000E0001A86F1200000E0001736F1A
:100F9800000E0001746F400E0001756FA90E00016C
:100FA800636F000E0001646FA6C060F0A7C061F017
:100FB800A8C062F0B0EC12F060C070F061C071F0CF
:100FC80062C072F037EC06F070C08EF071C08FF01E
:100FD80072C090F0000E0001916F800E0001926FB8
:100FE800BF0E0001936F00EC03F08EC0A6F08FC017
:100FF800A7F090C0A8F00001A907D8A0AA07A6C02A
:101008009AF0A7C09BF0A8C09CF0CD0E00019D6F80
:101018007F0E00019E6F000E0001A06F080E9F6FEB
:1010280098EC0EF09AC0A6F09BC0A7F09CC0A8F060
:10103800720E0001736F310E0001746F3F0E0001D4
:10104800756FA9C068F0AAC069F09BEC16F068C07B
:1010580070F069C071F06AC072F037EC06F070C0C9
:101068008EF071C08FF072C090F0A6C091F0A7C04A
:1010780092F0A8C093F000EC03F08EC0A6F08FC0E9
:10108800A7F090C0A8F0120012009CC09EF00001CA
:101098009F6BA06B00019B3500019E3701E39F8188
:1010A80000019E510001A86F0001A851D8A40AD0E0
:1010B800000E00019A6F000E9B6F000E9C6F000ED1
:1010C8009D6F1200170E00019E6F9AC09FF09BC083
:1010D800A0F09CC0A1F000019E290001A26F05D0DC
:1010E8000001D890A133A0339F330001A22FF8D775
:1010F80000019F510001A36F00019B8FFF0E0001AB
:101108009A17FF0E00019B17000E00019C170001A3
:101118009A510001A46F00019B510001A56F0001C5
:101128009C510001A66F0001A76B8E0E0001A85FFD
:101138000001A8AF1BD00001A851800A8F0FD8B0BA
:101148000BD0000E00019A6F000E9B6F000E9C6F73
:10115800000E9D6F120000D00001D890A733A6336F
:10116800A533A4330001A83FF7D71FD0170E0001FD
:10117800A86514D0000E00019A6F000E9B6F000E38
:101188009C6F000E9D6F120009D00001D890A43703
:10119800A537A637A7370001A80700D00001A85136
:1011A8000001D8B402D0F1D700D00001A35100014A
:1011B800D8B40AD00001A71FA61FA51FA46D000E52
:1011C800A523A623A72300D0A4C09AF0A5C09BF00E
:1011D800A6C09CF0A7C09DF01200120081C085F047
:1011E8000001866B876B000180350001853701E3BC
:1011F80086810001855100018C6F00018C51D8A4B3
:101208000AD0000E00017F6F000E0001806F000EF3
:101218000001816F120084C085F00001866B876B26
:10122800000183350001853701E38681000185517E
:1012380000018D6F00018D51D8A40AD0000E000165
:101248007F6F000E0001806F000E0001816F120099
:10125800000E0001896F000E00018A6F000E000168
:101268008B6F00018D51890F00018C5F81C08DF05B
:101278000001845100018D1B800E00018D170001B3
:10128800808FFF0E00017F17FF0E00018017000EF0
:10129800000181170001838FFF0E00018217FF0EE6
:1012A80000018317000E00018417180E0001886FD3
:1012B80000D00001D89089378A378B3700018251D6
:1012C80000017F5D000183510001805900018451B4
:1012D80000018159D8A00ED00001825100017F5F22
:1012E800000183510001805B000184510001815B92
:1012F800000189810001D8907F378037813700014C
:10130800882FD7D700D089C060F08AC061F08BC021
:1013180062F08CC063F08DC064F008EC0CF060C023
:101328007FF061C080F062C081F0120012001B04DF
:10133800D8B460BA07D0000E656E64806488020E67
:101348001B6E00D065B464A404D0659459EC17F002
:1013580000D060A202D0A494120065B064A007D0A7
:101368003FEC0AF0A384040E1B6E659000D065B8AC
:1013780064A803D0F0EC17F000D065AC1FD064ACC3
:101388000FD0000E386E730E376E000E396E000ED9
:101398003A6E000E3C6E010E3B6E03EC15F000D069
:1013A800659C85EC18F01E50D8B402D01E0600D0FB
:1013B8001E50D8A403D034EC11F000D065BA64AA4A
:1013C80003D0BFEC16F000D065B264A210D07F0E37
:1013D800386E3768000E396E000E3A6E000E3C6E9D
:1013E800010E3B6E03EC15F0000E676E00D0040E84
:1013F8001B6002D0A494120064A63BD0000E466E77
:10140800030E466401D035D065A633D061CF2AF0EB
:101418002A30E832E8320F0B206E65962AB407D0DE
:101428002050010D110EF324D96E000E06D0205065
:10143800010D0F0EF324D96E000EF420DA6EDF7062
:1014480000D02050D8A403D0F3EC13F010D0000E35
:10145800386E720E376E2A0E396E000E3A6E000E16
:101468003C6E000E3B6E03EC15F001D002D0462A0C
:10147800C7D7A4941200A394000E676E000E656E81
:10148800000E6A6E6B0E2B6E0F0E2C6E000E2E6EFB
:10149800000E2D6E000E306E010E2F6E07EC18F048
:1014A800160E626E9F0E666E7B0E646E000E336EB5
:1014B8000ED010D03350040D000EF324D96E040E54
:1014C800F420DA6EDE6ADE6ADE6ADD6A332A070E27
:1014D8003364F0D7608C000E636E6098609C00D017
:1014E8006596000E256E000E046E000E066E000E48
:1014F800056E65B6F5D7010E1C6E010E1D6E000E49
:101508000001F26F000E0001F36F000E196E000E5D
:10151800336E010E336401D02ED03350020D090E04
:10152800F324D96E000EF420DA6E000EDE6E000E83
:10153800DD6E3350020DE60EF324D96E000EF42052
:10154800DA6E000EDE6E000EDD6E3350010D0F0EEA
:10155800F324D96E000EF420DA6E000EDF6E3350DD
:10156800010D110EF324D96E000EF420DA6E000E70
:10157800DF6E332ACED7080E096E040E0A6E160ED9
:101588006A6E040E0401036F200E026F080E040138
:10159800016F040E0401006F0401008F000E286E15
:1015A800000E0001E26F000EE36F000EE46F000E04
:1015B800E56F000E0001F46F000E1B6E12000001B3
:1015C800A6510001A7110001A811D8A40AD0000E45
:1015D8000001A66F000E0001A76F000E0001A86FA2
:1015E80012000001A8517F0B0001AB6FAC6BD890C3
:1015F8000001AB37AC370001AB510001A92700014E
:10160800AC510001AA230001A7AF04D00001AB6BC5
:10161800AB2B02D00001AB6B0001AB510001A92735
:10162800000EAA230001AAAF10D0000E0001EF6F30
:10163800220EEE6F000E0001A66F000E0001A76FCC
:10164800000E0001A86F120045D00001AABF20D0EB
:101658000001AA05D8A01CD0000E0001EF6F220ED1
:10166800EE6F0001A8AF0AD0FF0E0001A66F7F0E33
:101678000001A76FFF0EE5D712002CD0FF0E000166
:10168800A66F7F0E0001A76F7F0EDBD7120022D056
:101698000001AA35AA310001AC6F0001A93100018F
:1016A800AB6F0001A8510001AB19800BAB19000109
:1016B800A86FA9C0ABF0010E0001AB170001AB3356
:1016C800AB330001A7510001AB197F0BAB19000127
:1016D800A76F00D0A6C0A6F0A7C0A7F0A8C0A8F022
:1016E80012001200800E04012019D8A41200C00EA6
:1016F800256E7CD0E80E226E7F0E236E000E276EBC
:10170800120E266E120004012251D8A43ED0040104
:101718002251020D050EF324F66E7F0EF420F76EAB
:101728000900F5CF22F00A00F5CF23F0020E22249B
:101738002B6E000E23202C6E2BC0F6FF2CC0F7FF5B
:10174800F86A070EF76403D00800F55005D0F6CF05
:10175800E1FFF7CFE2FFE750266E030E22242B6E3F
:10176800000E23202C6E2BC0F6FF2CC0F7FFF86A62
:10177800070EF76403D00800F55005D0F6CFE1FF57
:10178800F7CFE2FFE750276E1200000E256E120019
:10179800030E0401226124D004012251020DFF0E20
:1017A800F324F66E7E0EF420F76E0900F5CF22F0D2
:1017B8000A00F5CF23F022C0F6FF23C0F7FFF86A2E
:1017C800070EF76403D00800F55005D0F6CFE1FF07
:1017D800F7CFE2FFE7502B6E2B50266E276A1200D8
:1017E800000E256E1200000E256E12000401235112
:1017F800010AD8B47FD7030AD8B485D7010AD8B468
:10180800C7D7F1D712001200000163510001D8B404
:1018180008D0000160510001611100016211D8A4D3
:1018280013D0000E0001606F000E0001616F000E02
:101838000001626F120008D00001632B0001D890EC
:1018480062336133603300D0000E0001601500017F
:10185800656F000E000161150001666FFE0E000144
:1018680062150001676F00016551000166110001F2
:101878006711D8B413D0E0D711D00001632B010E43
:1018880000016027000E00016123000E00016223A1
:101898000001D89062336133603300D0000E00013C
:1018A80060150001656F000E000161150001666F8B
:1018B800FF0E000162150001676F0001655100010C
:1018C800661100016711D8B40AD0D7D708D0000133
:1018D80063070001D89060376137623700D0000194
:1018E80061BF05D0020E00016361F1D700D000018D
:1018F80063B103D00001619F00D00001D890633329
:101908000001635100016213000164510001D8B461
:1019180003D00001628F00D060C060F061C061F048
:1019280062C062F01200120020EE01F01350D926B6
:101938001450DA22DF502C6E2C50055C000E06582D
:10194800D8B003D005C02CF000D02C50055E000E96
:10195800065A000E2B6E12D02B50010D280EF324C0
:10196800D96E040EF420DA6E01C0E1FF02C0E2FF76
:10197800DFCFE7FF014A022A2B2A00D02C502B5C2C
:10198800D8A0EAD705500610D8B432D020EE01F01E
:101998001550D9261650DA22080EDF6E20EE02F016
:1019A8001550D9261650DA22280EDE6E040EDD6E8A
:1019B80013C0D9FF14C0DAFFDFBC0DD015C0D9FFA2
:1019C80016C0DAFF480EDF6E15C0D9FF16C0DAFF61
:1019D800000EDB8E120015C0D9FF16C0DAFF080E04
:1019E800DF6E15C0D9FF16C0DAFF000EDB8E1200BD
:1019F80020EE01F01550D9261650DA22080EDF6EB7
:101A080020EE02F01550D9261650DA22200EDE6E8E
:101A1800040EDD6E15C0D9FF16C0DAFF040EDF6EA6
:101A280015C0D9FF16C0DAFF000EDB8E049E1A50CF
:101A3800D8A4120034EC11F012001200B3C060F008
:101A4800B4C061F0B5C062F0B90E0001636F000E5A
:101A58000001646FB0EC12F00001BAAF17D00001BA
:101A6800B5AF0AD0000E0001B36F800E0001B46F4D
:101A7800BF0E0001B56F1200000E0001B36F000E1B
:101A88000001B46F000E0001B56F12000001BA51D9
:101A980005E1150E0001B95DD8A007D0B3C0B3F0B9
:101AA800B4C0B4F0B5C0B5F01200B3C09AF0B4C079
:101AB8009BF0B5C09CF049EC08F09AC0A9F09BC017
:101AC800AAF09CC0ABF09DC0ACF007EC13F0A9C025
:101AD800B6F0AAC0B7F0ABC0B8F0B3C060F0B4C0FD
:101AE80061F0B5C062F0B6C063F0B7C064F0B8C0CA
:101AF80065F0CDEC10F00001D8B018D0B6C08EF06B
:101B0800B7C08FF0B8C090F0000E0001916F800E42
:101B18000001926FBF0E0001936F00EC03F08EC0BE
:101B2800B3F08FC0B4F090C0B5F01200B6C0B3F0F7
:101B3800B7C0B4F0B8C0B5F01200609825BE3BD06D
:101B480004AE0ED0020E1F6E0001F351D8A403D0CC
:101B580058EC13F000D0000E1D6E000E1C6E120023
:101B680020EE01F01550D9261650DA22080EDF6E45
:101B780020EE02F01550D9261650DA22200EDE6E1D
:101B8800040EDD6E15C0D9FF16C0DAFF0C0EDF6E2D
:101B980015C0D9FF16C0DAFF000EDB8E09C0D9FFC9
:101BA8000AC0DAFF040EDF6E09C0D9FF0AC0DAFFE7
:101BB800000EDB8E1200040120AF13D0010E1F6E41
:101BC8000001F251D8A403D058EC13F000D0000E55
:101BD8001D6E000E1C6E1A50D8A4120034EC11F0C1
:101BE8001200020E1F6E20EE01F01550D926165075
:101BF800DA22080EDF6E20EE02F01550D9261650B4
:101C0800DA22200EDE6E040EDD6E15C0D9FF16C076
:101C1800DAFF040EDF6E15C0D9FF16C0DAFF000E1A
:101C2800DB8E000E1D6E000E1C6E1A50D8A412001A
:101C380034EC11F012001200040120511F0BE806C9
:101C4800D8A4120001D0120004012451D8A4120013
:101C580001D01200060E04012119D8B41AD023D0DD
:101C680018D02804D8A41FD07B0E226E7F0E236EB6
:101C7800000E276E090E0AD0C00E256E14D0B00EC5
:101C8800226E7F0E236E000E276E1D0E266EF4D771
:101C98000AD004012351210AD8B4E3D7030AD8B4DF
:101CA800EED7010A00D004012039E832030BE80618
:101CB800D8A4120023D0120021D01200F60E226EF2
:101CC800000E236E000E276E010E266EC10E256EC5
:101CD8001200800E256E23C4F6F01200F50E226E57
:101CE800000E236E000E276E010E266E810E256EE5
:101CF8001200800E256E22C4F5F012000401215155
:101D0800010AD8B41200030AD8B4D8D7010AD8B443
:101D1800E5D70A0AD8B41200030AD8B4DAD7010AF8
:101D2800D8A41200E6D712009FC060F0A0C061F0EE
:101D3800000E0001636F030E626F22EC17F09DC066
:101D4800A1F09EC0A2F0000160510001A12700018E
:101D580061510001A223A1C0F6FFA2C0F7FF09004C
:101D6800F5CFA3F00900F5CFA4F00A00F5CFA5F050
:101D780045D0A3C073F0A4C074F0A5C075F09AC094
:101D880070F09BC071F09CC072F037EC06F070C028
:101D98008EF071C08FF072C090F0000E0001636F7A
:101DA800030E626F00019F07D8A0A0079FC060F0D4
:101DB800A0C061F022EC17F09DC0A1F09EC0A2F077
:101DC800000160510001A127000161510001A22317
:101DD800A1C0F6FFA2C0F7FF0900F5CF91F00900F6
:101DE800F5CF92F00A00F5CF93F000EC03F08EC027
:101DF800A3F08FC0A4F090C0A5F000D000019F51BF
:101E08000001A011D8A4B5D7A3C09AF0A4C09BF034
:101E1800A5C09CF0120004012039E832030B000928
:101E2800D8A4120046D0120044D0258E080E1B6E8E
:101E3800120076EC0BF01200EFEC0FF01200280EF7
:101E4800226E000E236E2580010E266E258E12004E
:101E580055EC12F0120000D0B9EC01F012000401A8
:101E68002451010D290EF324226E000EF420236E56
:101E78002580010E266E258E1200258E0401245120
:101E8800010D290EF324D96E000EF420DA6E22C457
:101E9800DFFF1200000E386E020E376E000E396E2C
:101EA800000E3A6E000E3C6E000E3B6E03EC15F011
:101EB800120004012151000AD8B4CAD7010AD8B4C3
:101EC800CBD7020AD8B4C8D7060AD8B4AED7030A03
:101ED800D8B4AFD7010AD8B4DDD70F0AD8B4AFD772
:101EE800010AD8B4A9D7030AD8B4B9D7010AD8B413
:101EF800C4D7070A120012000001646F0001605184
:101F08000001D8B408D000016451020D090EF32471
:101F1800D96E000E07D000016451020DE60EF324BD
:101F2800D96E000EF420DA6EDECF65F0DDCF66F0F4
:101F380000D00001655100016611D8A407D0000E39
:101F48000001606F000E0001616F1200000120EEB9
:101F580002F06551D9266651DA2261C0DEFF62C0FF
:101F6800DDFF000120EE01F06551D9266651DA2225
:101F780063C0DFFF65C0D9FF66C0DAFF400EDF1619
:101F880065C0D9FF66C0DAFF000EDB8665C0D9FFE1
:101F980066C0DAFF000EDB8E000160510001D8B484
:101FA80008D000016451020D090EF324D96E000E09
:101FB80007D000016451020DE60EF324D96E000E1D
:101FC800F420DA6E040EDF1A00D065C060F066C037
:101FD80061F012001200258E6B0E2B6E0F0E2C6E08
:101FE800000E2E6E000E2D6E000E306E010E2F6E3E
:101FF80007EC18F0000E2B6E040E2C6E000E2E6EE1
:10200800000E2D6E000E306E200E2F6E07EC18F0AD
:10201800608C000E3F6E010E3F6401D016D03F5019
:10202800010D0F0EF324D96E000EF420DA6E000EA7
:10203800DF6E3F50010D110EF324D96E000EF4200F
:10204800DA6E000EDF6E3F2AE6D7290E2B6E000EE1
:102058002C6E000E2E6E000E2D6E000E306E010ED0
:102068002F6E07EC18F0609C080E096E040E0A6EBD
:10207800000E136E040E146E13C015F014C016F083
:1020880022C428F02850D8A403D0100E1B6E1200CA
:10209800000E386E010E376E280E396E000E3A6E3D
:1020A800000E3C6E010E3B6E03EC15F0200E1B6E0D
:1020B80012001200080E2B6E275011E1080E265C44
:1020C800D8B00DD026C02BF02150D8A402D0010ED4
:1020D80004D02104D8A403D0020E216E00D02B50C6
:1020E800265E000E275A20EE01F00950D9260A5024
:1020F800DA222BC0DFFF280E0001F06F040E00016A
:10210800F16F25A01ED03FD01CD022C0F6FF23C0FF
:10211800F7FFF86AF0C0D9FFF1C0DAFF070EF764DD
:1021280003D00800F55005D0F6CFE1FFF7CFE2FF66
:10213800E750DF6E224A232A0001F04BF12B2B06D1
:1021480000D02B50D8B41200E0D712001CD022C007
:10215800F6FF23C0F7FFF86AF0C0D9FFF1C0DAFF35
:10216800070EF76403D00800F55005D0F6CFE1FF5D
:10217800F7CFE2FFE750DF6E224A232A0001F04B37
:10218800F12B2B0600D02B50D8B41200E0D7120048
:102198001200000162AF1ED060C066F061C067F037
:1021A80062C068F00001661F671F681F662B000E7B
:1021B80067236823000E000166250001606F000E8A
:1021C800000167210001616F800E00016821000194
:1021D800626F00D0000165AF1ED063C066F064C0B6
:1021E80067F065C068F00001661F671F681F662BEF
:1021F800000E67236823000E000166250001636F47
:10220800000E000167210001646F800E0001682143
:102218000001656F00D0000E0001601B000E000178
:10222800611B800E0001621B000E0001631B000E83
:102238000001641B800E0001651B00016351000151
:10224800605D0001645100016159000165510001A0
:102258006259D8B002D0D8901200D880120012006B
:102268001C50D8A41200010E1C6E1D50D8A41200D8
:10227800010E1D6E020E1F18D8A415D020EE01F015
:102288000950D9260A50DA22000EDF6E09C0D9FF9C
:102298000AC0DAFF480EDF6E09C0D9FF0AC0DAFFAC
:1022A800000EDB8E12001F04D8A41200000E176E59
:1022B80020EE01F01350D9261450DA22080EDF6EF2
:1022C80020EE02F01350D9261450DA22200EDE6ECA
:1022D800040EDD6E13C0D9FF14C0DAFF040EDF6EE2
:1022E80013C0D9FF14C0DAFF000EDB8E010E176E83
:1022F80020EE01F01550D9261650DA22080EDF6EAE
:1023080020EE02F01550D9261650DA22200EDE6E85
:10231800040EDD6E15C0D9FF16C0DAFF800EDF6E21
:10232800120012002F6E2B50D8B407D02F50020D78
:10233800090EF324D96E000E06D02F50020DE60EBA
:10234800F324D96E000EF420DA6EDECF30F0DDCF44
:1023580031F000D030503110D8A405D0000E2B6ECB
:10236800000E2C6E120020EE02F03050D9263150AB
:10237800DA222CC0DEFF2DC0DDFF20EE01F0305048
:10238800D9263150DA222EC0DFFF30C0D9FF31C044
:10239800DAFF400EDF1630C0D9FF31C0DAFF000E79
:1023A800DB8630C0D9FF31C0DAFF000EDB8E2B5040
:1023B800D8B407D02F50020D090EF324D96E000EA1
:1023C80006D02F50020DE60EF324D96E000EF4202D
:1023D800DA6E040EDF1A00D030C02BF031C02CF0BA
:1023E8001200120009C0D9FF0AC0DAFF000EDFBCD4
:1023F800010E2C6E040E091A080E1B18D8A40CD056
:10240800040122517F0B636E6350D8B402D0100EC2
:1024180001D0040E1B6E00D01F04D8A43AD020EEC1
:1024280002F00950D9260A50DA22280EDE6E040E70
:10243800DD6E5EEC10F0020E2118D8A40DD009C094
:10244800D9FF0AC0DAFF040EDF6E09C0D9FF0AC03F
:10245800DAFF000EDB8E12002C50D8A40DD009C074
:10246800D9FF0AC0DAFF480EDF6E09C0D9FF0AC0DB
:10247800DAFF000EDB8E120009C0D9FF0AC0DAFFAE
:10248800080EDF6E09C0D9FF0AC0DAFF000EDB8E26
:10249800120004AE02D0049E00D0000E1F6E12007F
:1024A8001200000E0401286F000E0401296F3DD0B0
:1024B800258E03D00401288100D01804D8A441D067
:1024C800040128833ED0258E3CD0258E040124BFEC
:1024D8000BD0040124510F0B2B6E2B50020DE60E6E
:1024E800F324D96E000E0AD0040124510F0B2B6E71
:1024F8002B50020D090EF324D96E000EF420DA6E6B
:10250800DECF2CF0DDCF2DF000D02CC0D9FF2DC0B0
:10251800DAFFDFAE16D02CC0D9FF2DC0DAFFDFA45A
:1025280010D0010E0401286F0CD0040120511F0B9C
:10253800000AD8B4BDD7010AD8B4C5D7030AD8B49D
:10254800C4D725AE1200280E226E040E236E2580F5
:10255800020E266E12001200000160510001611186
:1025680000016211D8A412D063C0D9FF64C0DAFF99
:10257800000EDE6E000EDD6E000E0001606F000EB4
:102588000001616F000E0001626F120000016251CC
:102598007F0B0001656F666BD89000016537663761
:1025A80063C0D9FF64C0DAFF65C0DEFF66C0DDFF27
:1025B800000161AF04D00001656B652B02D00001FA
:1025C800656B0001655163C0D9FF64C0DAFFDE1294
:1025D800000EDD1263C0D9FF64C0DAFF820EDE266A
:1025E800FF0EDD2262816283628562876289628B67
:1025F800629D0001619F60C060F061C061F062C0CF
:1026080062F012001200000E0001B26F8E0E00017F
:10261800B16F0001ACAF16D00001AC1FAB1FAA1FF1
:10262800A96D000EAA23AB23AC23010E0001B26FE3
:1026380009D00001D890AC33AB33AA33A9330001D9
:10264800B12B00D0000E0001A9150001AD6F000EDE
:102658000001AA150001AE6F000E0001AB150001C4
:10266800AF6FFF0E0001AC150001B06F0001AD5156
:102678000001AE110001AF110001B011D8A4D9D7E3
:10268800A9C060F0AAC061F0ABC062F0B1C063F04D
:10269800B2C064F008EC0CF060C0A9F061C0AAF008
:1026A80062C0ABF012001200000E0001F26F000EC3
:1026B8000001F36F020E1F18D8A41FD020EE01F0FE
:1026C8001550D9261650DA22080EDF6E20EE02F0D9
:1026D8001550D9261650DA22280EDE6E040EDD6E4D
:1026E80015C0D9FF16C0DAFF480EDF6E15C0D9FF36
:1026F80016C0DAFF000EDB8E120026500401265D9C
:10270800275004012759D8B005D026C426F027C47D
:1027180027F000D05EEC10F020EE02F00950D92628
:102728000A50DA22280EDE6E040EDD6E09C0D9FFCB
:102738000AC0DAFF480EDF6E09C0D9FF0AC0DAFF07
:10274800000EDB8E12001200306E000E316E040E89
:10275800326E2B502C6E2D6AD8902C362D36305078
:102768002E6E2F6AD8902E362F36D8902E362F36CA
:102778002C502E262D502F22D8902E362F36D8901A
:102788002E362F362E5031262F50322231C0D9FF07
:1027980032C0DAFFDF9E2B50D8A407D03050020D8C
:1027A800E60EF324D96E000E06D03050020D090E45
:1027B800F324D96E000EF420DA6E31C0DEFF32C089
:1027C800DDFF00D031C0D9FF32C0DAFFDF9C20EE38
:1027D80004F03150D9263250DA22DF8C12002D0E47
:1027E8001E6E2AC045F0FD0E4516D8A438D02AC062
:1027F80045F0D89045323F0E45164550040D000E61
:10280800F324136E040EF420146E13C015F014C0D4
:1028180016F0040E151A13C0D9FF14C0DAFFDF3002
:10282800E8320F0B0D0AD8A417D0200E2B6E040E19
:102838002C6E20EE02F01350D9261450DA22DECF87
:102848002DF0DDCF2EF0000E306E080E2F6EE1EC6D
:1028580016F03CEC14F01200EDEC15F012002A50C2
:10286800FD0B040AD8A41200F6EC11F012001200B5
:10287800000E216E000E1A6E000E0001F26F000E9F
:102888000001F36F000E176E000E1F6E09C0D9FF0E
:102898000AC0DAFF7F0EDF16040E091A09C0D9FF35
:1028A8000AC0DAFF7F0EDF16040E091A15C0D9FF19
:1028B80016C0DAFF7F0EDF16000E256E000E276E9B
:1028C800000E266E000E046E000E066E000E056EDB
:1028D8000FEC0FF0000E386E030E376E000E396ED7
:1028E800000E3A6E000E3C6E000E3B6E03EC15F0C7
:1028F800A1EC0DF012001904D8A438D0000EBEECDB
:1029080018F0120033D00D040E10D8A404D0000E15
:10291800ACEC18F030D04B0E0D180E10D8A404D023
:10292800000EBEEC18F027D00E5004E1970E0D5C97
:10293800D8A021D0000E0E6E000E0D6E1CD00D0416
:102948000E10D8A404D0000EACEC18F014D0320E3F
:102958000D180E10D8A404D0000EBEEC18F00BD041
:10296800B70E0D5C030E0E58E3D705D01B50200A96
:10297800D8B4C9D7E4D70D4A0E2A1200000E0001B8
:102988006D6F000E6C6F0001695100016A11D8B4B7
:1029980031D0010E00016B6F07D00001D890693764
:1029A8006A3700016B2B00D000016ABF02D0F5D74F
:1029B80000D00001D8906C376D37000169510001D3
:1029C800675D00016A5100016859D8A00BD0000169
:1029D80069510001675F00016A510001685B0001ED
:1029E8006C8100D00001D8906A33693300016B2FE5
:1029F800E0D700D06CC067F06DC068F0120016D048
:102A080012007FEC14F012007FEC14F0010E1CECA5
:102A180016F012007FEC14F0020E1CEC16F01200F7
:102A280074EC17F0120020EC0EF0120037C03DF0E5
:102A380038C03EF03E50000AD8B404D07F0AD8A46B
:102A480012001AD03D50010AD8B4EAD7030AD8B404
:102A58001200010AD8B4E7D7060AD8B41200770AD8
:102A6800D8B41200010AD8B4CCD7070AD8B4D2D740
:102A7800010AD8A41200C8D73D50FF0A120012005C
:102A88008E0E0001706F09D00001D8906B336A3345
:102A9800693368330001702B00D0000E00016815FF
:102AA80000016C6F000E0001691500016D6F000ECA
:102AB80000016A1500016E6FFF0E00016B15000121
:102AC8006F6F00016C5100016D1100016E11000162
:102AD8006F11D8A4D9D768C060F069C061F06AC026
:102AE80062F070C063F0000E0001646F08EC0CF037
:102AF80060C068F061C069F062C06AF0120012003C
:102B08000001666F06D00AD000016169626912008F
:102B180005D000016651000AD8A4F6D766C063F054
:102B2800000163476347C25000016319830B6319AF
:102B3800C26EC282010E5DEC18F0020E5DEC18F058
:102B4800020E71EC18F000D0C2B2FED7010E71EC83
:102B580018F0C4CF64F00001656B00016451656F23
:102B6800646BC3500001641364C061F065C062F017
:102B7800120012000001616F21D0800E9B6E700E52
:102B8800D36E100ED26E00D0D2AEFED7900EB56EB8
:102B9800000EA8EC17F0010EA8EC17F0020EA8EC36
:102BA80017F0010EE1EC18F0000E03EC19F0000E1E
:102BB80099EC18F0010E99EC18F01200000161511F
:102BC800000AD8B4DAD7010AD8B41200030A1200EE
:102BD8001200020E1F18D8A403D098EC0CF01200B3
:102BE800000E1F6E1750D8A41FD020EE01F015500C
:102BF800D9261650DA22080EDF6E20EE02F01550A4
:102C0800D9261650DA22200EDE6E040EDD6E15C0AF
:102C1800D9FF16C0DAFF0C0EDF6E15C0D9FF16C03B
:102C2800DAFF000EDB8E1200000E176E1200120083
:102C38002C6E21D0800E9B6E700ED36E100ED26E4D
:102C480000D0D2AEFED7900EB56E000E1EEC18F076
:102C5800010E1EEC18F0020E1EEC18F0010E12EC1C
:102C680019F0000E21EC19F0000EF2EC18F0010E2C
:102C7800F2EC18F012002C50000AD8B4DBD7010A85
:102C8800D8B41200030A1200120000016E6F04D0BB
:102C980008D0FF0E120005D000016E51000AD8A41A
:102CA800F8D700016E5184EC15F061C067F062C07E
:102CB80068F0000E00016A6F0A0E696FC2EC14F02A
:102CC8000001675100016F6F640E00016F6503D04A
:102CD800640E00016F6F00016F51120012000001B5
:102CE8009D5100019E1100019F11D8B40AD0000E19
:102CF80000019D1B000E00019E1B800E00019F1B02
:102D080000D09AC08EF09BC08FF09CC090F09DC000
:102D180091F09EC092F09FC093F000EC03F08EC03B
:102D28009AF08FC09BF090C09CF012001200000E29
:102D380000016B6F000169AF09D00001686D691F60
:102D4800D8B0692B010E00016B6F00D068C060F02D
:102D580069C061F00001626B8E0E0001636F6BC089
:102D680064F008EC0CF060C068F061C069F062C003
:102D78006AF0120012006AA01ED013C0D9FF14C056
:102D8800DAFF800EDE18D8A415D009C0D9FF0AC012
:102D9800DAFF840EDE18D8A40DD013C0D9FF14C0F2
:102DA800DAFF0C0EDF6E13C0D9FF14C0DAFF000E75
:102DB800DB8E00D06A90659A12002DC033F02EC0C9
:102DC80034F02BC031F02CC032F00FD033C0D9FF13
:102DD80034C0DAFF31C0E1FF32C0E2FFDFCFE7FFE6
:102DE800334A342A314A322A00D02F06D8A0300676
:102DF8002F28ECE13028D8A4E9D71200366E33A486
:102E080006D0000E2B6E3650A8EC13F000D033A27B
:102E180006D0010E2B6E3650A8EC13F000D03650B9
:102E2800010D6A0EF324346E0F0EF420356E34C093
:102E3800D9FF35C0DAFF33C0DFFF1200000160514F
:102E480000016203F3CF64F0F4CF65F00001605134
:102E580000016303F350000165270001615100017F
:102E68006203F3500001652764C060F065C061F03B
:102E78001200120060C066F061C067F00AD066C038
:102E8800D9FF67C0DAFF62C0DFFF0001664B672B1E
:102E980000D000016407D8A0650700016429EFE1AC
:102EA80000016529D8A4EBD71200000E196E000E98
:102EB800386E740E376E000E396E000E3A6E000EC4
:102EC8003C6E000E3B6E03EC15F06092649402D0E9
:102ED800659400D065B4FCD7000E0001F46F1200B1
:102EE800000E0001EA6F000E0001EB6F1E0E336E3C
:102EF800010E02EC17F0000E2B6E000E2C6E050E64
:102F08002D6E400E2E6E010E96EC11F02BC0ECF0DB
:102F18002CC0EDF012001B50D8A41200000E606EF9
:102F2800000E646E160E626E9F0E666E7B0E646EE9
:102F3800D08EA584A384F28E01D0608660A6FDD7CA
:102F4800010E1B6E120012000001606F08D09494ED
:102F58000F015D95120094900F015D95120000011C
:102F68006051000AD8B41200010AD8B4F0D7030A95
:102F7800D8A41200F0D712000001605100016111BD
:102F880000016211D8B409D0000E0001601B000EC8
:102F98000001611B800E0001621B60C060F061C00F
:102FA80061F062C062F0120000016B6F00016B51AA
:102FB8000001606F616B626B8E0E0001636F000E23
:102FC8000001646F08EC0CF060C068F061C069F043
:102FD80062C06AF012001200648465986082010E73
:102FE800196E000E0001F46F000E386E750E376E04
:102FF800000E396E000E3A6E000E3C6E000E3B6EEF
:1030080003EC15F012002BC031F02CC032F009D0BF
:1030180031C0D9FF32C0DAFF2DC0DFFF314A322A72
:1030280000D02F06D8A030062F28F2E13028D8A4E7
:10303800EFD712002B6E08D094940F015D95120003
:1030480094900F015D9512002B50000AD8B412001D
:10305800010AD8B4F1D7030AD8A41200F1D7120094
:10306800000EBEEC15F0EDEC06F08FEC17F000D07A
:10307800200E1B6001D0FCD760B2FAD701D0F8D778
:1030880041EC00F0F5D73FEF00F00001606F04D08D
:103098008B7412008B70120000016051000AD8B4C2
:1030A8001200010AD8B4F4D7030AD8A41200F2D740
:1030B80012000001606F04D08B8412008B80120014
:1030C80000016051000AD8B41200010AD8B4F4D73C
:1030D800030AD8A41200F2D712000001606F04D0CE
:1030E8008B9412008B90120000016051000AD8B432
:1030F8001200010AD8B4F4D7030AD8A41200F2D7F0
:103108001200010E0001E227000EE323E423E52369
:103118001950D8A412000001F42B0001F451D8A4CE
:1031280012000001F469120012000001606F06D05D
:1031380092800F015B81120094901200000160518F
:10314800000AD8B4F5D7010AD8A41200F5D712009E
:103158002B6E04D08B8412008B8012002B50000A37
:10316800D8B41200010AD8B4F5D7030AD8A41200BB
:10317800F3D712002B6E04D08B9412008B901200A0
:103188002B50000AD8B41200010AD8B4F5D7030AA4
:10319800D8A41200F3D7120000EEE2F0150EEE6A82
:1031A800E806FDE100EE01F02A0EEE6AE806FDE110
:1031B800000EF86E000134EF18F00001606F04D0C3
:1031C80095860F015E97120000016051000AD8B47D
:1031D8001200010AD8A41200F3D712002B6E06D0F1
:1031E80092800F015B811200949012002B50000A0C
:1031F800D8B4F6D7010AD8A41200F6D712000001F5
:10320800606F000160510001D8A41200000EC16E69
:10321800BE0EC06E010EC26E120012002B6E04D0DC
:1032280095860F015E9712002B50000AD8B4120041
:10323800010AD8A41200F4D712002B6E2B50D8A480
:103248001200000EC16EBE0EC06E010EC26E1200DC
:02325800120062
:107EFE0000FA7F077F3B7F697F34034D0069006383
:107F0E000072006F0063006800690070002000546A
:107F1E00006500630068006E006F006C006F006704
:107F2E00007900200049006E0063002E002E0353DE
:107F3E000069006D0070006C00650020004800496B
:107F4E00004400200044006500760069006300656F
:107F5E00002000440065006D006F00090229000139
:107F6E000100C032090400000203000000092111C3
:107F7E00010001221D0007058103400001070501D4
:107F8E000340000100803F72313FFE753E58633D55
:107F9E00951D3CC5AE3A79213994803793A7355655
:107FAE0015340600FF0901A101190129401500260B
:107FBE00FF00750895408100190129409100C0000D
:107FCE00000000803FF0FFBEE2A93E8376BEAE2BDE
:107FDE003E3CC3BDD2133D78D3BB1201000200005C
:107FEE000008D8043F000001010200010403090447
:027FFE00000081
:020000040020DA
:08000000FFFFFFFFFFFFFFFF00
:020000040030CA
:0E00000021081F3EFF9181FF0FC00FE00F404F
:00000001FF
